:04000000021A5A3254
:03000B00020013DD
:031AB30002000E20
:05000E0012004480FE19
:0E001300C0E0C082C083C002C003C0D075D060
:0E00210000900066E0FAA3E0FB900066740118
:08002F002AF0E43BA3F0C28DAE
:0D003700D0D0D003D002D083D082D0E032F0
:0E00440075800090000A1205F17598504389EE
:0E00520020758DFAD28ED299438780D2A9D222
:0D006000AF74F055894490F58943A07C12DF
:09006D0004D49003E81205F1121D
:0B00760006FF120A7FC2A19003E812EF
:0200810005F187
:0E008300900068E0FAA3E0FBC3EA9402EB648D
:0800910080948040030202F19B
:0E009900900066E4F0A3F0758C00758A00D22A
:0A00A7008C90000A1205F11205E426
:0300B10030B2FD6D
:0300B40020B2FD7A
:0E00B700AA8C8A037A00AC8A7D00EC4202ED2E
:0E00C5004203900066E0FCA3E0FD7E008D0784
:0E00D3008C06E4FDFCEB3395E0F8F9EA4204FC
:0E00E100EB4205E84206E9420790005AECF0B7
:0E00EF00A3EDF0A3EEF0A3EFF08C828D838ED4
:0E00FD00F012055EAA82AB83ACF0FDE4C0E019
:0E010B00E4C0E0E4C0E07440C0E08A828B8370
:0E0119008CF0ED1218F3AA82AB83ACF0FDE57A
:0E0127008124FCF581E4C0E0E4C0E074BEC0B9
:0D013500E07442C0E08A828B838CF0ED12F2
:0E01420018F3AA82AB83ACF0FDE58124FCF536
:0E0150008190005EEAF0A3EBF0A3ECF0A3EDCB
:0E015E00F0900062E0FAA3E0FBA3E0FCA3E057
:0E016C00FD74DBC0E0740FC0E07449C0E074A5
:0E017A0040C0E08A828B838CF0ED120CDEAA6E
:0E01880082AB83ACF0FDE58124FCF581E4C080
:0E019600E0E4C0E07434C0E07443C0E08A824C
:0E01A4008B838CF0ED1218F3AA82AB83ACF0C3
:0E01B200FDE58124FCF5818A828B838CF0EDC3
:0E01C000120DBBAA82AB83ACF0FD90005EE096
:0E01CE00FEA3E0FFA3E0F8A3E0F9C002C00327
:0E01DC00C004C0058E828F8388F0E9120CDE0D
:0E01EA00AA82AB83ACF0FDE58124FCF5819088
:0E01F8000062E0FEA3E0FFA3E0F8A3E0F9C080
:0E02060002C003C004C00574DBC0E0740FC06A
:0E021400E07449C0E07440C0E08E828F8388A1
:0E022200F0E9120CDEAE82AF83A8F0F9E581A0
:0E02300024FCF581D005D004D003D002C0021A
:0E023E00C003C004C005E4C0E0E4C0E07434B6
:0E024C00C0E07443C0E08E828F8388F0E91218
:0E025A0018F3AE82AF83A8F0F9E58124FCF51D
:0E02680081D005D004D003D0028E828F83880F
:0E027600F0E9C002C003C004C005120E60858E
:07028400820885830985F063
:0C028B000AF50BD005D004D003D002907F
:0E029700005EE0FEA3E0FFA3E0F8A3E0F9C0E4
:0C02A50002C003C004C005C008C009C0AE
:0B02B1000AC00B8E828F8388F0E912D8
:0E02BC000CDEAE82AF83A8F0F9E58124FCF5DC
:0E02CA0081D005D004D003D002900015EEF0D4
:0E02D800A3EFF0A3E8F0A3E9F08A828B838CF9
:0902E600F0ED12072F1203A10232
:0202EF0000838A
:0E02F10075800090002CE4F0A3F090002E74B5
:0E02FF00C0F0900000120C5290002C7401F020
:0D030D00E4A3F090002E74A0F09000001208
:0C031A000C5290002C7402F0E4A3F09050
:0C032600002E7490F0900000120C529019
:0E033200002C7403F0E4A3F090002E7488F009
:0E034000900000120C5290002C7404F0E4A304
:0E034E00F090002E7488F0900000120C529077
:0E035C00002C7405F0E4A3F090002E7490F0D5
:0E036A00900000120C5290002C7406F0E4A3D8
:0E037800F090002E74A0F0900000120C529035
:0E038600002C7407F0E4A3F090002E74C0F079
:06039400900000120C5263
:06039A00A2B7928180FA77
:0103A000223A
:0E03A100C2A790000A1205F1D2A790006412C4
:0703AF0005F1C2A720A145E2
:0E03B600900062E0FAA3E0FBA3E0FCA3E0FDF0
:0E03C4007466C0E07466C0E07466C0E0743F0A
:0E03D200C0E08A828B838CF0ED121657AA824F
:0E03E000AB83ACF0FDE58124FCF5819000625A
:0D03EE00EAF0A3EBF0A3ECF0A3EDF08043E8
:0E03FB00900062E0FAA3E0FBA3E0FCA3E0FDAB
:0E0409007466C0E07466C0E07466C0E0743FC4
:0E041700C0E08A828B838CF0ED120CD3AA8297
:0E042500AB83ACF0FDE58124FCF58190006214
:0B043300EAF0A3EBF0A3ECF0A3EDF067
:0E043E00900062E0FAA3E0FBA3E0FCA3E0FD67
:0E044C00E4C0E0E4C0E074B4C0E07443C0E07B
:0E045A008A828B838CF0ED1214EBAA82E5816E
:0704680024FCF581EA701E7F
:08046F00A2A1B3E433FA601608
:0E047700D2A1900068E0FAA3E0FB9000687448
:08048500012AF0E43BA3F02280
:0E048D00900062E0FAA3E0FBA3E0FCA3E0FD18
:0E049B00E4C0E0E4C0E0E4C0E0E4C0E08A8237
:0E04A9008B838CF0ED120EC3AA82E58124FC39
:0504B700F581EA701759
:0404BC0010A1012268
:0E04C000900068E0FAA3E0FB90006874012A47
:0504CE00F0E43BA3F087
:0104D3002206
:0D04D40043A0409000641205F153A0BF90BA
:0E04E10000641205F143A0409000641205F182
:0E04EF0005807582001206330580758280122A
:0E04FD000633058075824012067305807582F5
:0E050B00141206330580758200120633058037
:0E05190075824112067305807582001206334A
:0E05270005807582001206330580758242122F
:0E05350006737582141206330580758200125B
:0E05430006330580758243120673758281129D
:0C05510006730580758298120673058001
:01055D00227B
:0E055E00AA82AB83ACF0FD900008EAF0A3EB9C
:0E056C00F0A3ECF0A3EDF0900008E0FAA3E09D
:0E057A00FBA3E0FCA3E0FD8A828B838CF012D1
:0E0588000E22AA82AB83ACF0FD7496C0E07424
:0E05960043C0E0740BC0E0743DC0E08A828B6D
:0E05A400838CF0ED120CDEAA82AB83ACF0FD6E
:0E05B200E58124FCF581E4C0E0E4C0E0E4C093
:0D05C000E07440C0E08A828B838CF0ED1265
:0E05CD0018F3AA82AB83ACF0FDE58124FCF5A7
:0805DB00818A828B838CF0ED14
:0105E30022F5
:0C05E400C2A0D2A09000011205F1C2A03C
:0105F00022E8
:0E05F100AA83E58290000CF0A3EAF090000CC3
:0E05FF00E0FAA3E0FB900043741EF0E4A3F0CA
:0E060D008A828B8312151BAA82AB837C007D30
:01061B0000DE
:0E061C00C3EC9AED64808BF063F08095F05093
:01062A0007C8
:07062B000CBC00ED0D80EA9C
:0106320022A5
:0D063300E58290000EF043A00853A0CB908C
:0E064000000EE0F59043A01443A020900001AE
:03064E000205F1B1
:09065100120694E582540360F7DF
:0E065A0043A00453A0C790000FE590F043A00A
:0A0668001843A02090000FE0F58277
:010672002265
:0E067300E582900010F043A00843A02053A0A1
:0E068100EB900010E0F59043A01453A0DF9022
:05068F0000010205F16D
:0D06940043A00443A02053A0E790000212F1
:0E06A10005F1900011E590F043A01853A0DF82
:0606AF00900011E0F5824D
:0106B5002222
:0E06B600E582900012F0900012E0FAF5821238
:0806C40006337582C0020673C3
:0E06CC00AA83E582900013F0A3EAF0900013D9
:0E06DA00E0FAA3E0FB8A047D008C82C002C01F
:0E06E80003120633D003D0028B027B008A82FD
:0906F6001206337582240206731A
:0D06FF007580019000001206CC7582B012CB
:06070C0006737A007B0A6F
:0E071200758200C002C003120633D003D0026D
:050720001ABAFF011BE5
:04072500EA4B70E942
:060729007582B2020673A6
:0E072F00AA82AB83ACF0FD900019EAF0A3EBB8
:0E073D00F0A3ECF0A3EDF0900019E0FAA3E0B9
:0E074B00FBA3E0FCA3E0FDE4C0E0E4C0E0742A
:0E0759009EC0E07442C0E08A828B838CF0ED7B
:0E076700120EC3AA82E58124FCF581EA600F20
:0E077500900019E4F0A3F0A3749EF0A3744268
:01078300F085
:0E078400900019E0FAA3E0FBA3E0FCA3E0FD67
:0E0792008A828B838CF0121857AA82AB839058
:0E07A0000015E0FCA3E0FDA3E0FEA3E0FF8C4B
:0E07AE00828D838EF0C002C003121857AC82F9
:0E07BC00AD83D003D00274502AFAE43BFB74E4
:0E07CA0040C39CFCE49DFD90004E7408F0E4DA
:0E07D800A3F08A828B83C002C003C004C00558
:0E07E6001216B0AE82AF83D005D004D003D07F
:0E07F400029000437414F0E4A3F08C828D8315
:0E080200C002C003C006C00712151BAC82ADB9
:0E08100083D007D006D003D002EC2EFEED3FC1
:0E081E00FF8E047D008C82C002C003C006C0A5
:0E082C0007120633D007D006D003D0028F0685
:0E083A007F008E82C002C003120633D003D0AE
:0E08480002758224C002C003120673D003D0D2
:0E085600029000457408F0E4A3F08A828B83C0
:0E08640012153BAA82AB837407C39AFAE49B79
:0B087200FB8AF005F07A017B00800695
:06087D00EA2AFAEB33FB4E
:0E088300D5F0F78A821206337582C002067322
:0E089100AA82AB83ACF0FD900021EAF0A3EB4D
:0E089F00F0A3ECF0A3EDF0900021E0FAA3E04E
:0E08AD00FBA3E0FCA3E0FD8A828B838CF0129B
:0E08BB00187FAA82AB8390001DE0FCA3E0FD35
:0E08C900A3E0FEA3E0FF8C828D838EF0C002C0
:0E08D700C00312187FAC82AD83D003D0027430
:0E08E500502AFAE43BFB7440C39CFCE49DFDEA
:0E08F300EBC423CAC423541F6ACA541FCA6A26
:0E090100CAFB9000437414F0E4A3F08C828DC6
:0E090F0083C002C00312151BAC82AD83D0035F
:0E091D00D002EC2AFAED3BFB8A047D008C82AE
:0E092B00C002C003120633D003D002EBFA3331
:0E09390095E0FB8A8212063375822412067343
:0C0947007582001206337582C002067330
:0E095300AA83E582900029F0A3EAF090002923
:0E096100E0FAA3E0FB90004E7408F0E4A3F06F
:0E096F008A828B83C002C0031216B0AC82AD28
:0E097D0083D003D002900025E0FEA3E0FF909F
:0E098B0000437414F0E4A3F08E828F83C00248
:0E099900C003C004C00512151BAE82AF83D090
:0E09A70005D004D003D002EE2CFCEF3DFD8CF9
:0E09B500067F008E82C002C003C004C005127F
:0E09C3000633D005D004D003D002EDFC3395EE
:0E09D100E0FD8C82C002C003120633D003D0BA
:0E09DF0002758224C002C003120673D003D03A
:0E09ED00029000457408F0E4A3F08A828B8328
:0E09FB0012153BAA82AB837407C39AFCE49BDF
:0B0A0900FD8CF005F07C017D008006F4
:060A1400EC2CFCED33FDAB
:0E0A1A00D5F0F790002BECF0900027E0FDA344
:080A2800E0FEBD011ABE00173B
:060A3000BA000CBB000936
:090A360090002B747F4CF080301D
:080A3F0090002B74FFF08028E9
:060A4700BD0225BE0022E5
:0E0A4D007407C39AFAE49BFB8AF005F07A0165
:040A5B007B00800696
:060A5F00EA2AFAEB33FB6A
:0A0A6500D5F0F790002B74014AF061
:0E0A6F0090002BE0FAF5821206337582C00269
:020A7D000673FE
:040A7F007A007B007E
:0B0A8300C3EA9480EB64809480502450
:0E0A8E00900025EAF0A3EBF0900027E4F0A31F
:0E0A9C00F090009FC002C003120953D003D097
:080AAA00020ABA00D40B80D14E
:040AB2007A007B004B
:0B0AB600C3EA94A0EB648094805028F9
:0E0AC100900025747FF0E4A3F09000277401EC
:0D0ACF00F0E4A3F08A828B83C002C0031202
:0D0ADC000953D003D0020ABA00D00B80CD20
:0E0AE9009000257401F0E4A3F0900027740241
:0E0AF700F0E4A3F090009E12095390002574C5
:0E0B050002F0E4A3F09000277402F0E4A3F0E5
:0E0B130090009D1209539000257403F0E4A396
:0E0B2100F09000277402F0E4A3F090009C1204
:0C0B2F0009539000257404F0E4A3F0903A
:0E0B3B0000277402F0E4A3F090009B1209530F
:0E0B4900900025747EF0E4A3F0900027E4F005
:0E0B5700A3F090000112095390002C747EF060
:0D0B6500E4A3F090002E7440F09000011207
:0C0B72000C5290002C747DF0E4A3F09075
:0C0B7E00002E7420F0900001120C529028
:0E0B8A00002C747CF0E4A3F090002E7410F0A8
:0E0B9800900001120C52900025E4F0A3F090A2
:0E0BA60000277401F0E4A3F090000012095340
:0E0BB4009000257401F0E4A3F0900027E4F017
:0E0BC200A3F09000001209539000257402F079
:0E0BD000E4A3F0900027E4F0A3F090000012E0
:0C0BDE0009539000257403F0E4A3F0908C
:0D0BEA000027E4F0A3F090000012095390E2
:0E0BF70000257404F0E4A3F09000277401F0D0
:0E0C0500E4A3F090000012095390002574053E
:0E0C1300F0E4A3F0900027E4F0A3F0900007B7
:0D0C21001209539000257406F0E4A3F09032
:0D0C2E000027E4F0A3F09000071209539096
:0E0C3B0000257407F0E4A3F09000277401F088
:090C4900E4A3F09000000209533D
:0E0C5200AA83E58290002FF0A3EAF090002F15
:0E0C6000E0FAA3E0FB90004E7408F0E4A3F06D
:0E0C6E008A828B831216B0AA82AB8390002C70
:0E0C7C00E0FCA3E0FD9000437414F0E4A3F04C
:0E0C8A008C828D83C002C00312151BAC82AD9C
:0E0C980083D003D002EC2AFAED3BFB8A047DE8
:0E0CA600008C82C002C003120633D003D002BD
:0D0CB4008B027B008A8212063375822412A7
:0A0CC100067390002EE0FAF582128F
:080CCB0006337582C0020673B6
:041AB600000000002C
:041ABA000000000028
:041ABE000000000024
:021AC200000022
:021AC400000020
:0B0CD300A8811818C6B2E7C602165729
:060CDE00120D64BC0003CE
:030CE4000218AB48
:080CE700EF60FA30D502B2D132
:0E0CEF00E58225832482F582EA8DF0A4A8F028
:0E0CFD00EA8EF0A428F8E435F0F9EB8DF0A4AF
:0E0D0B0028E935F0F9E433CA8FF0A429F9EA9B
:0E0D190035F0FAEBF88EF0A429F9EA35F0FA7D
:0E0D2700E433FBEC8DF0A429F9EA35F0FAE490
:0E0D35003BFBE88FF0A42AFAEB35F0FBE43329
:0E0D4300CCFD8EF0A42AFAEB35F0FBE43CFC6C
:0E0D5100ED8FF0A42BFBEC35F0FC20E7031235
:020D5F000D92F3
:030D610002188AEB
:0D0D6400AA82AB83A2F73392D16002D2F7CE
:0E0D7100F582ACF0E58124F9F8E6FD08E6FE17
:0E0D7F000886F008E6A2F73392D56002D2F79C
:050D8D00F583AFF02228
:061A8900E478FFF6D8FD31
:020D92007804E3
:0E0D9400EC700DC9CACBFCE58224F8F582D8BC
:020DA200F1223C
:020DA4007820B5
:0E0DA60020E7111582C3E933F9EA33FAEB3383
:060DB400FBEC33FCD8EC5F
:010DBA002216
:0C0DBB00C014858114AA82AB83ACF0FD4B
:0E0DC700C002C003C004C005E4C0E0E4C0E008
:0E0DD500E4C0E0E4C0E08A828B838CF0ED1273
:0E0DE3000E4FAE82E58124FCF581D005D004D0
:070DF100D003D002EE600AFE
:0A0DF80090000075F080743F801A2F
:0E0E02009000317401F0E4A3F08A828B838C9F
:0C0E1000F0ED120EF3AA82AB83ACF0FDF3
:060E1C00851481D01422B0
:090E2200FCABF0AA83A982749EC6
:0E0E2B00F582C2D1EC30E716D2D1E9F42401F1
:0E0E3900F9EAF43400FAEBF43400FBECF43484
:020E470000FCAD
:060E4900120D9202188A4E
:0E0E4F00FFA881181812181F121801E964017B
:030E5D00F58222F9
:081A67007910E94400601B7ACC
:051A6F0001901AB67899
:031A74005A75A000
:0C1A770000E493F2A308B8000205A0D917
:061A8300F4DAF275A0FF89
:0C0E6000C014858114AA82AB83ACF0FDA5
:0E0E6C00C002C003C004C005E4C0E0E4C0E062
:0E0E7A00E4C0E0E4C0E08A828B838CF0ED12CD
:0E0E88000E4FAE82E58124FCF581D005D0042A
:070E9600D003D002EE60085A
:080E9D00900000E4F5F080185C
:0E0EA500900031E4F0A3F08A828B838CF0ED94
:0A0EB300120EF3AA82AB83ACF0FD2F
:060EBD00851481D014220F
:0E0EC300FFA881181812181FD2D133E640077D
:070ED10030E70B75820122DE
:070ED80020E70675820022ED
:020EDF00C2D17E
:090EE100121801E97003F58222E8
:040EEA0030D101B34F
:050EEE00E433F582224F
:0E0EF300AA82AB83ACF0FD900033EAF0A3EBD3
:0E0F0100F0A3ECF0A3EDF0900031E0FAA3E0D5
:040F0F00FB4A6067D2
:0E0F1300900033E0FCA3E0FDA3E0FEA3E0FFAE
:0E0F21008C828D838EF0C002C0031217C3AC09
:0E0F2F0082AD83AEF0FFD003D002C002C0033B
:0E0F3D0074DBC0E0740FC0E074C9C0E0743F04
:0E0F4B00C0E08C828D838EF0EF121657AC82C0
:0E0F5900AD83AEF0FFE58124FCF581D003D01E
:0E0F670002900037ECF0A3EDF0A3EEF0A3EF44
:050F7500F0C200806BDA
:0E0F7A00900033E0FCA3E0FDA3E0FEA3E0FF47
:0E0F8800C002C003C004C005C006C007E4C01C
:0E0F9600E0E4C0E0E4C0E0E4C0E08C828D83C3
:0E0FA4008EF0EF1214EBA882E58124FCF5819B
:0E0FB200D007D006D005D004D003D002E860EE
:010FC000141C
:0E0FC100900037ECF0A3EDF0A3EEF0EFB2E7F6
:060FCF00A3F0D200801027
:0E0FD500900037ECF0A3EDF0A3EEF0A3EFF0E8
:020FE300C2004A
:0E0FE500900037E0FCA3E0FDA3E0FEA3E0FFD8
:0E0FF300C002C003C004C005C006C007E4C0B1
:0E100100E0740CC0E07449C0E07446C0E08C9E
:0E100F00828D838EF0EF120EC3A882E581243D
:0E101D00FCF581D007D006D005D004D003D05A
:04102B0002E8601067
:0E102F009000587422F0E4A3F0900000E4F565
:02103D00F0229F
:0E103F00C002C0037483C0E074F9C0E074A264
:0E104D00C0E0743EC0E08C828D838EF0EF1206
:0E105B000CDEAC82AD83AEF0FFE58124FCF527
:0E10690081D003D002C002C003E4C0E0E4C0A6
:0E107700E0E4C0E0743FC0E08C828D838EF018
:0E108500EF121657AC82AD83AEF0FFE581246A
:0E109300FCF581D003D0028C828D838EF0EFAD
:0E10A100C002C003121857AC82AD83D003D03A
:0510AF0002EC30E0023C
:0210B400B20088
:0E10B6008C828D83C002C00312184AAC82AD3A
:0E10C40083AEF0FFD003D00290003FECF0A30B
:0C10D200EDF0A3EEF0A3EFF0EA4B60326B
:0E10DE00E4C0E0E4C0E0E4C0E0743FC0E08C99
:0E10EC00828D838EF0EF120CD3AA82AB83AC00
:0E10FA00F0FDE58124FCF58190003FEAF0A3B3
:08110800EBF0A3ECF0A3EDF005
:0E111000900033E0FAA3E0FBA3E0FCA3E0FDB7
:0E111E008A828B838CF01217C3AA82AB83AC3B
:0E112C00F0FDC002C003C004C005121857AE8B
:0E113A0082AF83D005D004D003D0028E828F06
:0E11480083C002C003C004C00512184AAE8264
:0E115600AF83A8F0F9D005D004D003D002C0BA
:0E11640006C007C000C001C006C007C000C022
:0D117200018A828B838CF0ED120CD38582F4
:06117F000C85830D85F0D4
:0C1185000EF50FE58124FCF581D001D0AF
:0D11910000D007D00690003FE0F510A3E06D
:09119E00F511A3E0F512A3E0F540
:0D11A70013C006C007C000C001E4C0E0E4B2
:0D11B400C0E07449C0E07440C0E0851082C6
:0711C1008511838512F0E5A2
:0D11C80013120CDEAA82AB83ACF0FDE581B2
:0E11D50024FCF581D001D000D007D006C00266
:0E11E300C003C004C0058E828F8388F0E9121D
:0E11F1000CD3AA82AB83ACF0FDE58124FCF5A3
:0611FF0081C00CC00DC010
:0B1205000EC00F8A828B838CF0ED126C
:0E1210001657AA82AB83ACF0FDE58124FCF5F5
:0E121E0081C002C003C004C0057422C0E07489
:0D122C00AAC0E0747DC0E0743AC0E08510F7
:08123900828511838512F0E5A6
:0D12410013120CDEAE82AF83A8F0F9E58138
:0E124E0024FCF581D005D004D003D002C006E8
:0E125C00C007C000C0018A828B838CF0ED12A7
:0E126A000CD3AA82AB83ACF0FDE58124FCF529
:0E1278008190003BEAF0A3EBF0A3ECF0A3EDB5
:0E128600F0C002C003C004C005C002C003C017
:0E12940004C0058A828B838CF0ED120CDE857F
:0712A200821085831185F025
:0C12A90012F513E58124FCF581D005D07E
:0E12B50004D003D002C002C003C004C0057400
:0E12C300F3C0E074FFC0E0747FC0E07433C07D
:0812D100E08510828511838580
:0512D90012F0E5131204
:0E12DE000EC3AE82E58124FCF581D005D0045C
:0A12EC00D003D002EE70030214BF1D
:0E12F600C002C003C004C005745BC0E0749C5D
:0D130400C0E0742EC0E07436C0E085108299
:071311008511838512F0E550
:0D13180013120CDEAE82AF83A8F0F9E58160
:0E13250024FCF581D005D004D003D002C00214
:0E133300C003C004C0057422C0E074B2C0E064
:0E134100744FC0E074B9C0E08E828F8388F0D4
:0E134F00E9121657AE82AF83A8F0F9E58124AB
:0E135D00FCF581D005D004D003D002C002C040
:0A136B0003C004C005C010C011C08B
:0B13750012C0138E828F8388F0E912F3
:0E1380000CDEAE82AF83A8F0F9E58124FCF507
:0E138E0081D005D004D003D002C002C003C03D
:0E139C0004C005743EC0E07487C0E07408C051
:0D13AA00E0743CC0E08E828F8388F0E91271
:0E13B7001657AE82AF83A8F0F9E58124FCF54D
:0E13C50081D005D004D003D002C002C003C006
:0813D30004C005C010C011C0E8
:0B13DB0012C0138E828F8388F0E9128D
:0E13E6000CDEAE82AF83A8F0F9E58124FCF5A1
:0E13F40081D005D004D003D002C002C003C0D7
:0E14020004C00574A4C0E074AAC0E0742AC03F
:0D141000E074BEC0E08E828F8388F0E91288
:0E141D001657AE82AF83A8F0F9E58124FCF5E6
:0E142B0081D005D004D003D002C002C003C09F
:0814390004C005C010C011C081
:0B14410012C0138E828F8388F0E91226
:0E144C000CDEAE82AF83A8F0F9E58124FCF53A
:0E145A0081D005D004D003D002C002C003C070
:0E14680004C005C006C007C000C0018A828B08
:0E147600838CF0ED120CDEAE82AF83A8F0F98D
:0E148400E58124FCF581D005D004D003D00210
:0E149200C006C007C000C0018A828B838CF0A8
:0E14A000ED121657AA82AB83ACF0FDE5812455
:0E14AE00FCF58190003BEAF0A3EBF0A3ECF01C
:0314BC00A3EDF0AD
:0314BF00300013E7
:0E14C20090003BE0FAA3E0FBA3E0FCA3E0FDFA
:0514D000B2E7FD800EF3
:0E14D50090003BE0FAA3E0FBA3E0FCA3E0FDE7
:0714E3008A828B838CF0ED7F
:0114EA0022DF
:0E14EB00FFA881181812181FD2D133E640074F
:0714F90030E70B75820022B1
:0715000020E70675820122BD
:02150700C2D14F
:09150900121801E97003F58222B9
:0415120020D101B330
:05151600E433F5822220
:0E151B00AA83AB828BF0900043E0A4F8A9F005
:0E1529008AF0E0A429F98BF0A3E0A429F58351
:0315370088822285
:01153A00228E
:0E153B00AA83E582900047F0A3EAF0900047F3
:08154900E0FAA3E0FB30E70922
:09155100C3E49AFCE49BFD800454
:04155A008A048B056F
:0E155E008C028D03900045E0FCA3E0FD30E719
:01156C000975
:09156D00C3E49CFEE49DFF800430
:041576008C068D074B
:0D157A00900049EEF0A3EFF08A828B8312FF
:0E15870015A9AA82AB83900047E0FCA3E0FD0B
:0315950030E70C30
:0C159800C3E49AFCE49BFD8C828D83224E
:0415A4008A828B8329
:0115A8002220
:0E15A900AA83E58290004BF0A3EAF090004D7B
:0C15B700E4F090004BE0FAA3E0FB7C00A5
:0E15C300900049E0FDA3E0FE235401FF7037C5
:0E15D100EECD25E0CD33FE900049EDF0A3EE07
:0E15DF00F0900049E0FDA3E0FEC3EA9DEB9E04
:0215ED0050119B
:0E15EF00EEC313CD13CDFE900049EDF0A3EE38
:0315FD00F0800873
:081600000C90004DECF080BBE2
:0516080090004DE0FA26
:0E160D0090004BE0FBA3E0FC900049E0FDA341
:09161B00E0FEC3EB9DEC9E400BC8
:0B16240090004BEBC39DF0EC9EA3F088
:0E162F00900049E0FBA3E0FCC313CB13CBFCFF
:0E163D00900049EBF0A3ECF08A031AEB70C2A8
:0B164B0090004BE0FAA3E08A82F583D8
:011656002271
:081A8F007800E84400600A79C8
:031A97000075A037
:061A9A0000E4F309D8FC92
:081AA000785AE84400600C795B
:0B1AA80001900000E4F0A3D8FCD9FA84
:03165700120D640D
:09165A007900E583B58202800DE0
:0516630050031218D92C
:08166800E583C3958212198B82
:08167000E5D0C465D020E117AC
:0E167800EA2DFAEB3EFBEC3FFC500974011228
:06168600198BEC4480FC0E
:03168C0002188AB7
:0E168F00C3EA9DFAEB9EFBEC9FFC500FC3E4F8
:0D169D0099F9E49AFAE49BFBE49CFCB2D1BD
:0616AA00120D9202188AE5
:0E16B000AA83E582900050F0A3EAF09000506B
:0816BE00E0FAA3E0FB30E709AC
:0916C600C3E49AFCE49BFD8004DE
:0416CF008A048B05F9
:0E16D3008C028D0390004EE0FCA3E0FD33E49A
:0416E10033FE60096B
:0916E500C3E49CFFE49DF88004BD
:0416EE008C078D00D8
:0E16F200900052EFF0A3E8F08A828B83C006CE
:0E170000121728AA82AB83D006900050E0FC9E
:09170E00A3E0FD33E4336E600C2E
:0C171700C3E49AFCE49BFD8C828D8322CD
:041723008A828B83A8
:01172700229F
:0E172800AA83E582900054F0A3EAF0900056E8
:0E173600E4F0A3F0900052E0FAA3E0FB7C1078
:0D174400900054E0FDA3E0FE339201EECDD5
:0E17510025E0CD33FE900054EDF0A3EEF090B5
:0E175F000056E0FDA3E0FECD25E0CD33FE9068
:0A176D000056EDF0A3EEF03001127B
:0E177700900056E0FDA3E0FE90005674014D78
:04178500F0A3EEF0EF
:0E178900900056E0FDA3E0FEC3ED9AEE9B40FB
:011797001D34
:0E179800900056EDC39AF0EE9BA3F090005423
:0E17A600E0FDA3E0FE90005474014DF0A3EEB0
:0117B400F044
:0217B500DC8DC9
:0B17B700900054E0FAA3E08A82F58362
:0117C2002204
:0C17C300C014858114AA82AB83ACF0FD39
:0D17CF00E5812404F581A81408A60208A6EF
:0E17DC000308A60408A60518181853057FA6D2
:0E17EA000208A60308A60408A6058A828B83BF
:0317F8008CF0ED85
:0617FB00851481D01422C8
:0E1801007901AA82E68F82B5821318E6B5F04F
:0E180F000E18E6B5830918E68A82B5820279C2
:01181D0000CA
:01181E0022A7
:0E181F00B4800FE5F0700AE5837006E5827074
:03182D00027F0037
:01183000EFC8
:0E183100B6801518B6001018B6000B18B600D9
:07183F0006080808760022EC
:011846000899
:011847000898
:011848000897
:01184900227C
:0D184A00AC83AB827A007900748E020E2B05
:061857001219CE30D1127F
:0E185D00F4700BE5F0F47006E58330E701222D
:04186B009080002247
:0C186F00700AE5F07006E58320E7012216
:04187B00907FFF2239
:0B187F007F8E121A35F58385F082225F
:06188A00B98003EA13B36C
:0E1890004010EA2401FAE43BFBE43CFC500467
:04189E007C800582C3
:0918A200BC000EBB000BBA0008EB
:0818AB00E4F5F0F583F582225B
:0E18B300A2D1E582138CF092F78B838A8222F9
:0D18C100E4F583F58275F080F4A2D11322C6
:0B18CE00E4F583F58275F0C0747F2202
:0E18D900E582C583F582A2D133A2D592D11348
:0C18E70092D5ECCFFCEBCEFBEACDFA2250
:0818F300120D6430D502B2D1E0
:0618FB00BF00030218C14A
:06190100BC00030218AB5C
:0E190700C3E5829583247FF582C3ED9AEE9BA3
:0E191500EF9C40111582C3EA33F9EB33FAEC74
:0719230033FBE433FC8005F7
:05192A00E4CCCBCAF97A
:05192F00C08275F019F3
:0E193400C3E99DEA9EEB9FEC9400D5F0028083
:011942002D77
:0E194300400EE99DF9EA9EFAEB9FFBEC940042
:02195100FCC3D5
:0E195300B3E833F8E58233F582E58333F5839C
:0E196100C3E933F9EA33FAEB33FBEC33FC80D5
:01196F00C4B3
:0E197000B3E4F938FAE43582FBE43583FCD0A9
:07197E0082500405827C8009
:06198500120D920218A2EF
:031A5A0075812073
:0A1A5D00121A1DE582600302000E5C
:09198B006040F82582500274FF4F
:0E199400F582E824F8501ECCCBCAF9E4CC242E
:0E19A200F85014CBCAF9E4CB24F8500BCAF964
:0919B000E4CA24F8500379002276
:0519B90024086010F895
:0E19BE00C3EC13FCEB13FBEA13FAE913F9D8A0
:0119CC00F129
:0119CD0022F7
:0A19CE00121A21C3749E9582402D69
:0819D800790012198B30D11ABD
:0E19E000E9F42401F582EAF43400F583EBF417
:0C19EE003400F5F0ECF4340030E70F2278
:0B19FA00EC20E71489828A838BF02226
:031A050030D10AD3
:0A1A0800E4F582F583F5F074802206
:0B1A120074FFF582F583F5F0747F226D
:031A1D00758200CF
:011A200022A3
:0D1A2100AA82AB83A2F73392D16002D2F704
:051A2E00F582ACF0227E
:021A33007F9E94
:091A3500121A2130D1030218AB92
:0E1A3E00C3EF9582500974FFF5F0F583F58231
:011A4C002277
:051A4D00790012198B65
:081A520089828A838BF0EC22EB
:00000001FF
