:04000000021B153298
:03000B00020013DD
:031B6E0002000E64
:05000E0012004480FE19
:0E001300C0E0C082C083C002C003C0D075D060
:0E00210000900062E0FAA3E0FB900062740120
:08002F002AF0E43BA3F0C28DAE
:0D003700D0D0D003D002D083D082D0E032F0
:0E00440075800090000A1206B375985043892B
:0E00520020758DFAD28ED299438780D2A9D222
:0D006000AF74F055894490F58943A07C12DF
:09006D0005969003E81206B31297
:0B00760007C1120B3DC2A19003E8126D
:0500810006B37580FFCD
:0E008600900064E0FAA3E0FBC3EA9402EB648E
:0800940080948040030203AEDA
:0E009C00900062E4F0A3F0758C00758A00D22B
:0A00AA008C90000A1206B31206A69D
:0300B40030B2FD6A
:0300B70020B2FD77
:0E00BA00AA8C8A037A00AC8A7D00EC4202ED2B
:0E00C8004203900062E0FCA3E0FD7E008D0785
:0E00D6008C06E4FDFCEB3395E0F8F9EA4204F9
:0E00E400EB4205E84206E94207900056ECF0B8
:0E00F200A3EDF0A3EEF0A3EFF08C828D838ED1
:0E010000F0120620AA82AB83ACF0FDE4C0E052
:0E010E00E4C0E0E4C0E07440C0E08A828B836D
:0E011C008CF0ED1219AEAA82AB83ACF0FDE5BB
:0E012A008124FCF581E4C0E0E4C0E074BEC0B6
:0D013800E07442C0E08A828B838CF0ED12EF
:0E01450019AEAA82AB83ACF0FDE58124FCF577
:0E0153008190005AEAF0A3EBF0A3ECF0A3EDCC
:0E016100F090005EE0FAA3E0FBA3E0FCA3E058
:0E016F00FD74DBC0E0740FC0E07449C0E074A2
:0E017D0040C0E08A828B838CF0ED120D99AAAF
:0E018B0082AB83ACF0FDE58124FCF581E4C07D
:0E019900E0E4C0E07434C0E07443C0E08A8249
:0E01A7008B838CF0ED1219AEAA82AB83ACF004
:0E01B500FDE58124FCF5818A828B838CF0EDC0
:0E01C300120E76AA82AB83ACF0FD90005AE0DB
:0E01D100FEA3E0FFA3E0F8A3E0F9C002C00324
:0E01DF00C004C0058E828F8388F0E9120D994E
:0E01ED00AA82AB83ACF0FDE58124FCF5819085
:0E01FB000000EAF0A3EBF0A3ECF0A3EDF0900F
:0E020900005EE0FAA3E0FBA3E0FCA3E0FD74BE
:0E021700DBC0E0740FC0E07449C0E07440C06A
:0E022500E08A828B838CF0ED120D99AA82ABD9
:0E02330083ACF0FDE58124FCF581E4C0E0E43D
:0E024100C0E07434C0E07443C0E08A828B8356
:0E024F008CF0ED1219AEAA82AB83ACF0FDE587
:0D025D008124FCF5818A828B838CF0ED12E8
:0E026A000F1BAA82AB83ACF0FD90005AE0FEA1
:0E027800A3E0FFA3E0F8A3E0F9C002C003C0BA
:0E02860004C0058E828F8388F0E9120D99AABC
:0D02940082AB83ACF0FDE58124FCF5819088
:0802A1000000E0F508A3E0F500
:0802A90009A3E0F50AA3E0F54A
:0D02B1000BC002C003C004C005E4C0E0E4BF
:0D02BE00C0E0749EC0E074C2C0E0850882FC
:0702CB00850983850AF0E5B7
:0D02D2000B1215A6AE82E58124FCF581D04B
:0D02DF0005D004D003D002EE60030203A896
:0E02EC00C002C003C004C005E4C0E0E4C0E0EE
:0C02FA0074A0C0E07442C0E0850882855A
:060306000983850AF0E501
:0D030C000B120F7EAE82E58124FCF581D03E
:0D03190005D004D003D002EE60030203A85B
:0E032600C002C003C004C005E4C0E0E4C0E0B3
:0E0334007480C0E074C2C0E08A828B838CF0BB
:0E034200ED1215A6AE82E58124FCF581D005F2
:09035000D004D003D002EE704F7E
:0E035900C002C003C004C005E4C0E0E4C0E080
:0E036700747CC0E07442C0E08A828B838CF00C
:0E037500ED120F7EAE82E58124FCF581D005ED
:09038300D004D003D002EE701C7E
:0E038C00900011EAF0A3EBF0A3ECF0A3EDF06B
:07039A0085088285098385B7
:0503A1000AF0E50B125B
:0203A60007F15D
:0603A80012045C02008655
:0E03AE00758000900028E4F0A3F090002A74FF
:0E03BC00C0F0900000120D0D9000287401F0AA
:0D03CA00E4A3F090002A74A0F0900000124F
:0C03D7000D0D9000287402F0E4A3F090DB
:0C03E300002A7490F0900000120D0D90A4
:0E03EF0000287403F0E4A3F090002A7488F054
:0E03FD00900000120D0D9000287404F0E4A38F
:0E040B00F090002A7488F0900000120D0D9001
:0E04190000287405F0E4A3F090002A7490F01F
:0E042700900000120D0D9000287406F0E4A362
:0E043500F090002A74A0F0900000120D0D90BF
:0E04430000287407F0E4A3F090002A74C0F0C3
:06045100900000120D0DE9
:04045700D2A080FCB3
:01045B00227E
:0E045C00C2A790000A1206B3D2A79000641245
:07046A0006B3C2A720A14563
:0E04710090005EE0FAA3E0FBA3E0FCA3E0FD38
:0E047F007466C0E07466C0E07466C0E0743F4E
:0E048D00C0E08A828B838CF0ED121712AA82D7
:0E049B00AB83ACF0FDE58124FCF58190005EA2
:0D04A900EAF0A3EBF0A3ECF0A3EDF080432C
:0E04B60090005EE0FAA3E0FBA3E0FCA3E0FDF3
:0E04C4007466C0E07466C0E07466C0E0743F09
:0E04D200C0E08A828B838CF0ED120D8EAA8220
:0E04E000AB83ACF0FDE58124FCF58190005E5D
:0B04EE00EAF0A3EBF0A3ECF0A3EDF0AC
:0E04F90090005EE0FAA3E0FBA3E0FCA3E0FDB0
:0E050700E4C0E0E4C0E074B4C0E07443C0E0BF
:0E0515008A828B838CF0ED1215A6AA82E581F6
:0705230024FCF581EA701FC2
:08052A00A2A1B3E433FA60174B
:0E053200D2A1900064E0FAA3E0FB9000647494
:09054000012AF0E43BA3F080471E
:0E05490090005EE0FAA3E0FBA3E0FCA3E0FD5F
:0E055700E4C0E0E4C0E0E4C0E0E4C0E08A827A
:0E0565008B838CF0ED120F7EAA82E58124FCC0
:05057300F581EA70189B
:0505780010A102801338
:0E057D00900064E0FAA3E0FB90006474012A91
:05058B00F0E43BA3F0C9
:060590009001F40206B325
:0D05960043A0409000641206B353A0BF9034
:0E05A30000641206B343A0409000641206B339
:0E05B10005807582001206F5058075828012A5
:0E05BF0006F5058075824012073505807582AD
:0E05CD00141206F505807582001206F50580F1
:0E05DB0075824112073505807582001206F503
:0E05E90005807582001206F5058075824212AB
:0E05F70007357582141206F505807582001214
:0E06050006F505807582431207357582811255
:0C061300073505807582981207350580B8
:01061F0022B8
:0E062000AA82AB83ACF0FD900004EAF0A3EBDD
:0E062E00F0A3ECF0A3EDF0900004E0FAA3E0DE
:0E063C00FBA3E0FCA3E0FD8A828B838CF0120E
:0E064A000EDDAA82AB83ACF0FD7496C0E074A6
:0E06580043C0E0740BC0E0743DC0E08A828BAA
:0E066600838CF0ED120D99AA82AB83ACF0FDEF
:0E067400E58124FCF581E4C0E0E4C0E0E4C0D0
:0D068200E07440C0E08A828B838CF0ED12A2
:0E068F0019AEAA82AB83ACF0FDE58124FCF528
:08069D00818A828B838CF0ED51
:0106A5002232
:0C06A600C2A0D2A09000011206B3C2A0B6
:0106B2002225
:0E06B300AA83E582900008F0A3EAF090000808
:0E06C100E0FAA3E0FB90003F741EF0E4A3F00B
:0E06CF008A828B831215D6AA82AB837C007DB3
:0106DD00001C
:0E06DE00C3EC9AED64808BF063F08095F050D1
:0106EC000706
:0706ED000CBC00ED0D80EADA
:0106F40022E3
:0D06F500E58290000AF043A00853A0CB90CE
:0E070200000AE0F59043A01443A020900001EF
:030710000206B32B
:09071300120756E582540360F759
:0E071C0043A00453A0C790000BE590F043A04B
:0A072A001843A02090000BE0F582B8
:0107340022A2
:0E073500E58290000CF043A00843A02053A0E2
:0E074300EB90000CE0F59043A01453A0DF9063
:0507510000010206B3E7
:0D07560043A00443A02053A0E7900002122E
:0E07630006B390000DE590F043A01853A0DF00
:0607710090000DE0F5828E
:01077700225F
:0E077800E58290000EF090000EE0FAF582127D
:0807860006F57582C00207357B
:0E078E00AA83E58290000FF0A3EAF090000F1E
:0E079C00E0FAA3E0FB8A047D008C82C002C05C
:0E07AA00031206F5D003D0028B027B008A8278
:0907B8001206F5758224020735D2
:0D07C10075800190000012078E7582B01245
:0607CE0007357A007B0AEA
:0E07D400758200C002C0031206F5D003D002E9
:0507E2001ABAFF011B23
:0407E700EA4B70E980
:0607EB007582B202073521
:0E07F100AA82AB83ACF0FD900015EAF0A3EBFA
:0E07FF00F0A3ECF0A3EDF0900015E0FAA3E0FB
:0E080D00FBA3E0FCA3E0FDE4C0E0E4C0E07467
:0E081B009EC0E07442C0E08A828B838CF0EDB8
:0E082900121712AA82AB83ACF0FDE58124FC0D
:0E083700F5818A828B838CF0ED121912AA8251
:0E084500AB83C002C003900011E0C0E0A3E04E
:0E085300C0E0A3E0C0E0A3E0C0E090000075AC
:0E086100F07C7442120D8EAC82AD83AEF0FFBF
:0E086F00E58124FCF581D003D0028C828D83BC
:0E087D008EF0EFC002C003121912AC82AD83E0
:0E088B00D003D00290004A7408F0E4A3F08A73
:0E089900828B83C002C003C004C00512176B1F
:0D08A700AE82AF83D005D004D003D0029004
:0E08B400003F7414F0E4A3F08C828D83C00228
:0E08C200C003C006C0071215D6AC82AD83D0AD
:0E08D00007D006D003D002EC2EFEED3FFF8EC7
:0E08DE00047D008C82C002C003C006C0071259
:0E08EC0006F5D007D006D003D0028F067F009D
:0E08FA008E82C002C0031206F5D003D0027534
:0E0908008224C002C003120735D003D0029033
:0D09160000417408F0E4A3F08A828B831284
:0E09230015F6AA82AB837407C39AFAE49BFB15
:0A0931008AF005F07A017B008006D1
:06093B00EA2AFAEB33FB8F
:0E094100D5F0F78A821206F57582C0020735DE
:0E094F00AA82AB83ACF0FD90001DEAF0A3EB92
:0E095D00F0A3ECF0A3EDF090001DE0FAA3E093
:0E096B00FBA3E0FCA3E0FD8A828B838CF012DC
:0E097900193AAA82AB83900019E0FCA3E0FDBE
:0E098700A3E0FEA3E0FF8C828D838EF0C00201
:0E099500C00312193AAC82AD83D003D00274B5
:0E09A300502AFAE43BFB7440C39CFCE49DFD2B
:0E09B100EBC423CAC423541F6ACA541FCA6A67
:0E09BF00CAFB90003F7414F0E4A3F08C828D0C
:0E09CD0083C002C0031215D6AC82AD83D003E6
:0E09DB00D002EC2AFAED3BFB8A047D008C82F0
:0E09E900C002C0031206F5D003D002EBFA33B1
:0E09F70095E0FB8A821206F575822412073500
:0C0A05007582001206F57582C0020735EC
:0E0A1100AA83E582900025F0A3EAF09000256C
:0E0A1F00E0FAA3E0FB90004A7408F0E4A3F0B4
:0E0A2D008A828B83C002C00312176BAC82ADAD
:0E0A3B0083D003D002900021E0FEA3E0FF90E4
:0E0A4900003F7414F0E4A3F08E828F83C0028D
:0E0A5700C003C004C0051215D6AE82AF83D016
:0E0A650005D004D003D002EE2CFCEF3DFD8C3A
:0E0A7300067F008E82C002C003C004C00512C0
:0E0A810006F5D005D004D003D002EDFC33956D
:0E0A8F00E0FD8C82C002C0031206F5D003D039
:0E0A9D0002758224C002C003120735D003D0B8
:0E0AAB00029000417408F0E4A3F08A828B836D
:0E0AB9001215F6AA82AB837407C39AFCE49B65
:0B0AC700FD8CF005F07C017D00800636
:060AD200EC2CFCED33FDED
:0E0AD800D5F0F7900027ECF0900023E0FDA38E
:080AE600E0FEBD011ABE00177D
:060AEE00BA000CBB000978
:090AF400900027747F4CF0803063
:080AFD0090002774FFF080282F
:060B0500BD0225BE002226
:0E0B0B007407C39AFAE49BFB8AF005F07A01A6
:040B19007B008006D7
:060B1D00EA2AFAEB33FBAB
:0A0B2300D5F0F790002774014AF0A6
:0E0B2D00900027E0FAF5821206F57582C002EC
:020B3B0007357C
:040B3D007A007B00BF
:0B0B4100C3EA9480EB64809480502491
:0E0B4C00900021EAF0A3EBF0900023E4F0A368
:0E0B5A00F090009FC002C003120A11D003D019
:080B6800020ABA00D40B80D18F
:040B70007A007B008C
:0B0B7400C3EA94A0EB6480948050283A
:0E0B7F00900021747FF0E4A3F0900023740135
:0D0B8D00F0E4A3F08A828B83C002C0031243
:0D0B9A000A11D003D0020ABA00D00B80CDA2
:0E0BA700900021E4F0A3F09000237402F0E42B
:0E0BB500A3F090009E120A119000217401F02E
:0D0BC300E4A3F09000237402F0E4A3F0908E
:0E0BD000009D120A119000217402F0E4A3F0BF
:0D0BDE009000237402F0E4A3F090009C123C
:0C0BEB000A119000217403F0E4A3F090C4
:0E0BF70000237402F0E4A3F090009B120A1198
:0E0C0500900028747EF0E4A3F090002A748022
:0E0C1300F0900000120D0D900028747DF0E4AA
:0E0C2100A3F090002A7440F0900000120D0D18
:0E0C2F00900028747CF0E4A3F090002A74205A
:0E0C3D00F0900000120D0D900028747BF0E482
:0E0C4B00A3F090002A7410F0900000120D0D1E
:0E0C5900900021E4F0A3F09000237401F0E479
:0E0C6700A3F0900000120A119000217401F019
:0E0C7500E4A3F0900023E4F0A3F0900000123E
:0C0C83000A119000217402F0E4A3F0902C
:0D0C8F000023E4F0A3F0900000120A119081
:0E0C9C0000217403F0E4A3F0900023E4F0A321
:0E0CAA00F0900000120A119000217404F0E492
:0E0CB800A3F09000237401F0E4A3F09000007C
:0D0CC600120A119000217405F0E4A3F090D3
:0D0CD3000023E4F0A3F0900007120A119036
:0E0CE00000217406F0E4A3F0900023E4F0A3DA
:0E0CEE00F0900007120A119000217407F0E444
:0E0CFC00A3F09000237401F0E4A3F090000038
:030D0A00020A11C9
:0E0D0D00AA83E58290002BF0A3EAF090002B61
:0E0D1B00E0FAA3E0FB90004A7408F0E4A3F0B5
:0E0D29008A828B8312176BAA82AB83900028FC
:0E0D3700E0FCA3E0FD90003F7414F0E4A3F094
:0E0D45008C828D83C002C0031215D6AC82AD25
:0E0D530083D003D002EC2AFAED3BFB8A047D2C
:0E0D6100008C82C002C0031206F5D003D0023F
:0D0D6F008B027B008A821206F57582241229
:0A0D7C00073590002AE0FAF5821214
:080D860006F57582C002073575
:041B71000000000070
:041B7500000000006C
:041B79000000000068
:021B7D00000066
:021B7F00000064
:0B0D8E00A8811818C6B2E7C6021712B1
:060D9900120E1FBC000356
:030D9F00021966D0
:080DA200EF60FA30D502B2D176
:0E0DAA00E58225832482F582EA8DF0A4A8F06C
:0E0DB800EA8EF0A428F8E435F0F9EB8DF0A4F3
:0E0DC60028E935F0F9E433CA8FF0A429F9EAE0
:0E0DD40035F0FAEBF88EF0A429F9EA35F0FAC2
:0E0DE200E433FBEC8DF0A429F9EA35F0FAE4D5
:0E0DF0003BFBE88FF0A42AFAEB35F0FBE4336E
:0E0DFE00CCFD8EF0A42AFAEB35F0FBE43CFCB1
:0E0E0C00ED8FF0A42BFBEC35F0FC20E7031279
:020E1A000E4D7B
:030E1C0002194573
:0D0E1F00AA82AB83A2F73392D16002D2F712
:0E0E2C00F582ACF0E58124F9F8E6FD08E6FE5B
:0E0E3A000886F008E6A2F73392D56002D2F7E0
:050E4800F583AFF0226C
:061B4400E478FFF6D8FD75
:020E4D00780427
:0E0E4F00EC700DC9CACBFCE58224F8F582D800
:020E5D00F12280
:020E5F007820F9
:0E0E610020E7111582C3E933F9EA33FAEB33C7
:060E6F00FBEC33FCD8ECA3
:010E7500225A
:0C0E7600C014858114AA82AB83ACF0FD8F
:0E0E8200C002C003C004C005E4C0E0E4C0E04C
:0E0E9000E4C0E0E4C0E08A828B838CF0ED12B7
:0E0E9E000F0AAE82E58124FCF581D005D00458
:070EAC00D003D002EE600A42
:0A0EB30090000075F080743F801A73
:0E0EBD0090002D7401F0E4A3F08A828B838CE8
:0C0ECB00F0ED120FAEAA82AB83ACF0FD7C
:060ED700851481D01422F5
:090EDD00FCABF0AA83A982749E0B
:0E0EE600F582C2D1EC30E716D2D1E9F4240136
:0E0EF400F9EAF43400FAEBF43400FBECF434C9
:020F020000FCF1
:060F0400120E4D0219451A
:0E0F0A00FFA88118181218DA1218BCE9640149
:030F1800F582223D
:081B22007910E94400601B7A10
:051B2A0001901B717821
:031B2F005675A048
:0C1B320000E493F2A308B8000205A0D95B
:061B3E00F4DAF275A0FFCD
:0C0F1B00C014858114AA82AB83ACF0FDE9
:0E0F2700C002C003C004C005E4C0E0E4C0E0A6
:0E0F3500E4C0E0E4C0E08A828B838CF0ED1211
:0E0F43000F0AAE82E58124FCF581D005D004B2
:070F5100D003D002EE60089E
:080F5800900000E4F5F08018A0
:0E0F600090002DE4F0A3F08A828B838CF0EDDC
:0A0F6E00120FAEAA82AB83ACF0FDB7
:060F7800851481D0142253
:0E0F7E00FFA88118181218DAD2D133E6400706
:070F8C0030E70B7582012222
:070F930020E7067582002231
:020F9A00C2D1C2
:090F9C001218BCE97003F5822271
:040FA50030D101B393
:050FA900E433F5822293
:0E0FAE00AA82AB83ACF0FD90002FEAF0A3EB1B
:0E0FBC00F0A3ECF0A3EDF090002DE0FAA3E01E
:040FCA00FB4A606717
:0E0FCE0090002FE0FCA3E0FDA3E0FEA3E0FFF7
:0E0FDC008C828D838EF0C002C00312187EAC92
:0E0FEA0082AD83AEF0FFD003D002C002C00380
:0E0FF80074DBC0E0740FC0E074C9C0E0743F49
:0E100600C0E08C828D838EF0EF121712AC8248
:0E101400AD83AEF0FFE58124FCF581D003D062
:0E10220002900033ECF0A3EDF0A3EEF0A3EF8C
:05103000F0C200806B1E
:0E10350090002FE0FCA3E0FDA3E0FEA3E0FF8F
:0E104300C002C003C004C005C006C007E4C060
:0E105100E0E4C0E0E4C0E0E4C0E08C828D8307
:0E105F008EF0EF1215A6A882E58124FCF58123
:0E106D00D007D006D005D004D003D002E86032
:01107B001460
:0E107C00900033ECF0A3EDF0A3EEF0EFB2E73E
:06108A00A3F0D20080106B
:0E109000900033ECF0A3EDF0A3EEF0A3EFF030
:02109E00C2008E
:0E10A000900033E0FCA3E0FDA3E0FEA3E0FF20
:0E10AE00C002C003C004C005C006C007E4C0F5
:0E10BC00E0740CC0E07449C0E07446C0E08CE3
:0E10CA00828D838EF0EF120F7EA882E58124C6
:0E10D800FCF581D007D006D005D004D003D09F
:0410E60002E86010AC
:0E10EA009000547422F0E4A3F0900000E4F5AE
:0210F800F022E4
:0E10FA00C002C0037483C0E074F9C0E074A2A9
:0E110800C0E0743EC0E08C828D838EF0EF124A
:0E1116000D99AC82AD83AEF0FFE58124FCF5AF
:0E11240081D003D002C002C003E4C0E0E4C0EA
:0E113200E0E4C0E0743FC0E08C828D838EF05C
:0E114000EF121712AC82AD83AEF0FFE58124F2
:0E114E00FCF581D003D0028C828D838EF0EFF1
:0E115C00C002C003121912AC82AD83D003D0C2
:05116A0002EC30E00280
:02116F00B200CC
:0E1171008C828D83C002C003121905AC82ADC2
:0E117F0083AEF0FFD003D00290003BECF0A353
:0C118D00EDF0A3EEF0A3EFF0EA4B6032AF
:0E119900E4C0E0E4C0E0E4C0E0743FC0E08CDD
:0E11A700828D838EF0EF120D8EAA82AB83AC88
:0E11B500F0FDE58124FCF58190003BEAF0A3FB
:0811C300EBF0A3ECF0A3EDF04A
:0E11CB0090002FE0FAA3E0FBA3E0FCA3E0FD00
:0E11D9008A828B838CF012187EAA82AB83ACC4
:0E11E700F0FDC002C003C004C005121912AE14
:0E11F50082AF83D005D004D003D0028E828F4B
:0E12030083C002C003C004C005121905AE82EC
:0E121100AF83A8F0F9D005D004D003D002C0FE
:0E121F0006C007C000C001C006C007C000C066
:0D122D00018A828B838CF0ED120D8E85827C
:06123A000C85830D85F018
:0C1240000EF50FE58124FCF581D001D0F3
:0D124C0000D007D00690003BE0F510A3E0B5
:09125900F511A3E0F512A3E0F584
:0D12620013C006C007C000C001E4C0E0E4F6
:0D126F00C0E07449C0E07440C0E08510820A
:07127C008511838512F0E5E6
:0D12830013120D99AA82AB83ACF0FDE5813A
:0E12900024FCF581D001D000D007D006C002AA
:0E129E00C003C004C0058E828F8388F0E91261
:0E12AC000D8EAA82AB83ACF0FDE58124FCF52B
:0612BA0081C00CC00DC054
:0B12C0000EC00F8A828B838CF0ED12B1
:0E12CB001712AA82AB83ACF0FDE58124FCF57E
:0E12D90081C002C003C004C0057422C0E074CE
:0D12E700AAC0E0747DC0E0743AC0E085103C
:0812F400828511838512F0E5EB
:0D12FC0013120D99AE82AF83A8F0F9E581C1
:0E13090024FCF581D005D004D003D002C0062C
:0E131700C007C000C0018A828B838CF0ED12EB
:0E1325000D8EAA82AB83ACF0FDE58124FCF5B1
:0E13330081900037EAF0A3EBF0A3ECF0A3EDFD
:0E134100F0C002C003C004C005C002C003C05B
:0E134F0004C0058A828B838CF0ED120D998507
:07135D00821085831185F069
:0C13640012F513E58124FCF581D005D0C2
:0E13700004D003D002C002C003C004C0057444
:0E137E00F3C0E074FFC0E0747FC0E07433C0C1
:08138C00E085108285118385C4
:0513940012F0E5131248
:0E1399000F7EAE82E58124FCF581D005D004E4
:0A13A700D003D002EE700302157AA5
:0E13B100C002C003C004C005745BC0E0749CA1
:0D13BF00C0E0742EC0E07436C0E0851082DE
:0713CC008511838512F0E595
:0D13D30013120D99AE82AF83A8F0F9E581E9
:0E13E00024FCF581D005D004D003D002C00259
:0E13EE00C003C004C0057422C0E074B2C0E0A9
:0E13FC00744FC0E074B9C0E08E828F8388F019
:0E140A00E9121712AE82AF83A8F0F9E5812433
:0E141800FCF581D005D004D003D002C002C084
:0A14260003C004C005C010C011C0CF
:0B14300012C0138E828F8388F0E91237
:0E143B000D99AE82AF83A8F0F9E58124FCF58F
:0E14490081D005D004D003D002C002C003C081
:0E14570004C005743EC0E07487C0E07408C095
:0D146500E0743CC0E08E828F8388F0E912B5
:0E1472001712AE82AF83A8F0F9E58124FCF5D5
:0E14800081D005D004D003D002C002C003C04A
:08148E0004C005C010C011C02C
:0B14960012C0138E828F8388F0E912D1
:0E14A1000D99AE82AF83A8F0F9E58124FCF529
:0E14AF0081D005D004D003D002C002C003C01B
:0E14BD0004C00574A4C0E074AAC0E0742AC084
:0D14CB00E074BEC0E08E828F8388F0E912CD
:0E14D8001712AE82AF83A8F0F9E58124FCF56F
:0E14E60081D005D004D003D002C002C003C0E4
:0814F40004C005C010C011C0C6
:0B14FC0012C0138E828F8388F0E9126B
:0E1507000D99AE82AF83A8F0F9E58124FCF5C2
:0E15150081D005D004D003D002C002C003C0B4
:0E15230004C005C006C007C000C0018A828B4C
:0E153100838CF0ED120D99AE82AF83A8F0F915
:0E153F00E58124FCF581D005D004D003D00254
:0E154D00C006C007C000C0018A828B838CF0EC
:0E155B00ED121712AA82AB83ACF0FDE58124DD
:0E156900FCF581900037EAF0A3EBF0A3ECF064
:03157700A3EDF0F1
:03157A003000132B
:0E157D00900037E0FAA3E0FBA3E0FCA3E0FD42
:05158B00B2E7FD800E37
:0E159000900037E0FAA3E0FBA3E0FCA3E0FD2F
:07159E008A828B838CF0EDC3
:0115A5002223
:0E15A600FFA88118181218DAD2D133E64007D8
:0715B40030E70B75820022F5
:0715BB0020E7067582012202
:0215C200C2D194
:0915C4001218BCE97003F5822243
:0415CD0020D101B375
:0515D100E433F5822265
:0E15D600AA83AB828BF090003FE0A4F8A9F04E
:0E15E4008AF0E0A429F98BF0A3E0A429F58396
:0315F200888222CA
:0115F50022D3
:0E15F600AA83E582900043F0A3EAF090004340
:08160400E0FAA3E0FB30E70966
:09160C00C3E49AFCE49BFD800498
:041615008A048B05B3
:0E1619008C028D03900041E0FCA3E0FD30E761
:0116270009B9
:09162800C3E49CFEE49DFF800474
:041631008C068D078F
:0D163500900045EEF0A3EFF08A828B831247
:0E1642001664AA82AB83900043E0FCA3E0FD97
:0316500030E70C74
:0C165300C3E49AFCE49BFD8C828D832292
:04165F008A828B836D
:011663002264
:0E166400AA83E582900047F0A3EAF0900049C7
:0C167200E4F0900047E0FAA3E0FB7C00ED
:0E167E00900045E0FDA3E0FE235401FF70370D
:0E168C00EECD25E0CD33FE900045EDF0A3EE4F
:0E169A00F0900045E0FDA3E0FEC3EA9DEB9E4C
:0216A8005011DF
:0E16AA00EEC313CD13CDFE900045EDF0A3EE80
:0316B800F08008B7
:0816BB000C900049ECF080BB2B
:0516C300900049E0FA6F
:0E16C800900047E0FBA3E0FC900045E0FDA38E
:0916D600E0FEC3EB9DEC9E400B0D
:0B16DF00900047EBC39DF0EC9EA3F0D1
:0E16EA00900045E0FBA3E0FCC313CB13CBFC48
:0E16F800900045EBF0A3ECF08A031AEB70C2F1
:0B170600900047E0FAA3E08A82F58320
:0117110022B5
:081B4A007800E84400600A790C
:031B52000075A07B
:061B550000E4F309D8FCD6
:081B5B007856E84400600C79A3
:0B1B630001900000E4F0A3D8FCD9FAC8
:03171200120E1F95
:091715007900E583B58202800D24
:05171E005003121994B4
:08172300E583C39582121A460A
:08172B00E5D0C465D020E117F0
:0E173300EA2DFAEB3EFBEC3FFC50097401126C
:061741001A46EC4480FC96
:031747000219453F
:0E174A00C3EA9DFAEB9EFBEC9FFC500FC3E43C
:0D17580099F9E49AFAE49BFBE49CFCB2D101
:06176500120E4D021945B1
:0E176B00AA83E58290004CF0A3EAF090004CB7
:08177900E0FAA3E0FB30E709F0
:09178100C3E49AFCE49BFD800422
:04178A008A048B053D
:0E178E008C028D0390004AE0FCA3E0FD33E4E2
:04179C0033FE6009AF
:0917A000C3E49CFFE49DF8800401
:0417A9008C078D001C
:0E17AD0090004EEFF0A3E8F08A828B83C00616
:0E17BB001217E3AA82AB83D00690004CE0FC2C
:0917C900A3E0FD33E4336E600C73
:0C17D200C3E49AFCE49BFD8C828D832212
:0417DE008A828B83ED
:0117E20022E4
:0E17E300AA83E582900050F0A3EAF090005235
:0E17F100E4F0A3F090004EE0FAA3E0FB7C10C1
:0D17FF00900050E0FDA3E0FE339201EECD1E
:0E180C0025E0CD33FE900050EDF0A3EEF090FD
:0E181A000052E0FDA3E0FECD25E0CD33FE90B0
:0A1828000052EDF0A3EEF0300112C3
:0E183200900052E0FDA3E0FE90005274014DC4
:04184000F0A3EEF033
:0E184400900052E0FDA3E0FEC3ED9AEE9B4043
:011852001D78
:0E185300900052EDC39AF0EE9BA3F09000506F
:0E186100E0FDA3E0FE90005074014DF0A3EEF8
:01186F00F088
:02187000DC8D0D
:0B187200900050E0FAA3E08A82F583AA
:01187D002248
:0C187E00C014858114AA82AB83ACF0FD7D
:0D188A00E5812404F581A81408A60208A633
:0E1897000308A60408A60518181853057FA616
:0E18A5000208A60308A60408A6058A828B8303
:0318B3008CF0EDC9
:0618B600851481D014220C
:0E18BC007901AA82E68F82B5821318E6B5F094
:0E18CA000E18E6B5830918E68A82B582027907
:0118D800000F
:0118D90022EC
:0E18DA00B4800FE5F0700AE5837006E58270B9
:0318E800027F007C
:0118EB00EF0D
:0E18EC00B6801518B6001018B6000B18B6001E
:0718FA000608080876002231
:0119010008DD
:0119020008DC
:0119030008DB
:0119040022C0
:0D190500AC83AB827A007900748E020EE68E
:06191200121A8930D11207
:0E191800F4700BE5F0F47006E58330E7012271
:04192600908000228B
:0C192A00700AE5F07006E58320E701225A
:04193600907FFF227D
:0B193A007F8E121AF0F58385F08222E8
:06194500B98003EA13B3B0
:0E194B004010EA2401FAE43BFBE43CFC5004AB
:041959007C80058207
:09195D00BC000EBB000BBA00082F
:08196600E4F5F0F583F582229F
:0E196E00A2D1E582138CF092F78B838A82223D
:0D197C00E4F583F58275F080F4A2D113220A
:0B198900E4F583F58275F0C0747F2246
:0E199400E582C583F582A2D133A2D592D1138C
:0C19A20092D5ECCFFCEBCEFBEACDFA2294
:0819AE00120E1F30D502B2D168
:0619B600BF000302197CD2
:0619BC00BC0003021966E5
:0E19C200C3E5829583247FF582C3ED9AEE9BE8
:0E19D000EF9C40111582C3EA33F9EB33FAECB9
:0719DE0033FBE433FC80053C
:0519E500E4CCCBCAF9BF
:0519EA00C08275F01938
:0E19EF00C3E99DEA9EEB9FEC9400D5F00280C8
:0119FD002DBC
:0E19FE00400EE99DF9EA9EFAEB9FFBEC940087
:021A0C00FCC319
:0E1A0E00B3E833F8E58233F582E58333F583E0
:0E1A1C00C3E933F9EA33FAEB33FBEC33FC8019
:011A2A00C4F7
:0E1A2B00B3E4F938FAE43582FBE43583FCD0ED
:071A390082500405827C804D
:061A4000120E4D02195DBB
:031B1500758120B7
:0A1B1800121AD8E582600302000EE5
:091A46006040F82582500274FF93
:0E1A4F00F582E824F8501ECCCBCAF9E4CC2472
:0E1A5D00F85014CBCAF9E4CB24F8500BCAF9A8
:091A6B00E4CA24F85003790022BA
:051A740024086010F8D9
:0E1A7900C3EC13FCEB13FBEA13FAE913F9D8E4
:011A8700F16D
:011A8800223B
:0A1A8900121ADCC3749E9582402DF2
:081A93007900121A4630D11A45
:0E1A9B00E9F42401F582EAF43400F583EBF45B
:0C1AA9003400F5F0ECF4340030E70F22BC
:0B1AB500EC20E71489828A838BF0226A
:031AC00030D10A18
:0A1AC300E4F582F583F5F07480224B
:0B1ACD0074FFF582F583F5F0747F22B2
:031AD80075820014
:011ADB0022E8
:0D1ADC00AA82AB83A2F73392D16002D2F749
:051AE900F582ACF022C3
:021AEE007F9ED9
:091AF000121ADC30D10302196660
:0E1AF900C3EF9582500974FFF5F0F583F58276
:011B070022BB
:051B08007900121A46ED
:081B0D0089828A838BF0EC222F
:00000001FF
