:04000000021B0E329F
:03000B00020013DD
:031B670002000E6B
:05000E0012004480FE19
:0E001300C0E0C082C083C002C003C0D075D060
:0E00210000900062E0FAA3E0FB900062740120
:08002F002AF0E43BA3F0C28DAE
:0D003700D0D0D003D002D083D082D0E032F0
:0E00440075800090000A1206A9759850438935
:0E00520020758DFAD28ED299438780D2A9D222
:0D006000AF74F055894490F58943A07C12DF
:09006D00058C9003E81206A912AB
:0B00760007B7120B33C2A19003E81281
:0200810006A9CE
:0E008300900064E0FAA3E0FBC3EA9402EB6491
:0800910080948040030203A9E2
:0E009900900062E4F0A3F0758C00758A00D22E
:0A00A7008C90000A1206A912069CB4
:0300B10030B2FD6D
:0300B40020B2FD7A
:0E00B700AA8C8A037A00AC8A7D00EC4202ED2E
:0E00C5004203900062E0FCA3E0FD7E008D0788
:0E00D3008C06E4FDFCEB3395E0F8F9EA4204FC
:0E00E100EB4205E84206E94207900056ECF0BB
:0E00EF00A3EDF0A3EEF0A3EFF08C828D838ED4
:0E00FD00F0120616AA82AB83ACF0FDE4C0E060
:0E010B00E4C0E0E4C0E07440C0E08A828B8370
:0E0119008CF0ED1219A7AA82AB83ACF0FDE5C5
:0E0127008124FCF581E4C0E0E4C0E074BEC0B9
:0D013500E07442C0E08A828B838CF0ED12F2
:0E01420019A7AA82AB83ACF0FDE58124FCF581
:0E0150008190005AEAF0A3EBF0A3ECF0A3EDCF
:0E015E00F090005EE0FAA3E0FBA3E0FCA3E05B
:0E016C00FD74DBC0E0740FC0E07449C0E074A5
:0E017A0040C0E08A828B838CF0ED120D92AAB9
:0E01880082AB83ACF0FDE58124FCF581E4C080
:0E019600E0E4C0E07434C0E07443C0E08A824C
:0E01A4008B838CF0ED1219A7AA82AB83ACF00E
:0E01B200FDE58124FCF5818A828B838CF0EDC3
:0E01C000120E6FAA82AB83ACF0FD90005AE0E5
:0E01CE00FEA3E0FFA3E0F8A3E0F9C002C00327
:0E01DC00C004C0058E828F8388F0E9120D9258
:0E01EA00AA82AB83ACF0FDE58124FCF5819088
:0E01F8000000EAF0A3EBF0A3ECF0A3EDF09012
:0E020600005EE0FAA3E0FBA3E0FCA3E0FD74C1
:0E021400DBC0E0740FC0E07449C0E07440C06D
:0E022200E08A828B838CF0ED120D92AA82ABE3
:0E02300083ACF0FDE58124FCF581E4C0E0E440
:0E023E00C0E07434C0E07443C0E08A828B8359
:0E024C008CF0ED1219A7AA82AB83ACF0FDE591
:0D025A008124FCF5818A828B838CF0ED12EB
:0E0267000F14AA82AB83ACF0FD90005AE0FEAB
:0E027500A3E0FFA3E0F8A3E0F9C002C003C0BD
:0E02830004C0058E828F8388F0E9120D92AAC6
:0D02910082AB83ACF0FDE58124FCF581908B
:08029E000000E0F508A3E0F503
:0802A60009A3E0F50AA3E0F54D
:0D02AE000BC002C003C004C005E4C0E0E4C2
:0C02BB00C0E0E4C0E0E4C0E085088285FB
:0602C7000983850AF0E541
:0D02CD000B12159FAE82E58124FCF581D057
:0D02DA0005D004D003D002EE60030203A3A0
:0E02E700C002C003C004C005E4C0E0E4C0E0F3
:0C02F50074A0C0E07442C0E0850882855F
:060301000983850AF0E506
:0D0307000B120F77AE82E58124FCF581D04A
:0D03140005D004D003D002EE60030203A365
:0E032100C002C003C004C005E4C0E0E4C0E0B8
:0E032F007480C0E074C2C0E08A828B838CF0C0
:0E033D00ED12159FAE82E58124FCF581D005FE
:09034B00D004D003D002EE704F83
:0E035400C002C003C004C005E4C0E0E4C0E085
:0E036200747CC0E07442C0E08A828B838CF011
:0E037000ED120F77AE82E58124FCF581D005F9
:09037E00D004D003D002EE701C83
:0E038700900011EAF0A3EBF0A3ECF0A3EDF070
:0703950085088285098385BC
:05039C000AF0E50B1260
:0203A10007E76C
:0603A30012045902008360
:0E03A900758000900028E4F0A3F090002A7404
:0E03B700C0F0900000120D069000287401F0B6
:0D03C500E4A3F090002A74A0F09000001254
:0C03D2000D069000287402F0E4A3F090E7
:0C03DE00002A7490F0900000120D0690B0
:0E03EA0000287403F0E4A3F090002A7488F059
:0E03F800900000120D069000287404F0E4A39B
:0E040600F090002A7488F0900000120D06900D
:0E04140000287405F0E4A3F090002A7490F024
:0E042200900000120D069000287406F0E4A36E
:0E043000F090002A74A0F0900000120D0690CB
:0E043E0000287407F0E4A3F090002A74C0F0C8
:06044C00900000120D06F5
:06045200A2B7928180FABE
:010458002281
:0E045900C2A790000A1206A9D2A79000641252
:0704670006A9C2A720A14570
:0E046E0090005EE0FAA3E0FBA3E0FCA3E0FD3B
:0E047C007466C0E07466C0E07466C0E0743F51
:0E048A00C0E08A828B838CF0ED12170BAA82E1
:0E049800AB83ACF0FDE58124FCF58190005EA5
:0D04A600EAF0A3EBF0A3ECF0A3EDF080432F
:0E04B30090005EE0FAA3E0FBA3E0FCA3E0FDF6
:0E04C1007466C0E07466C0E07466C0E0743F0C
:0E04CF00C0E08A828B838CF0ED120D87AA822A
:0E04DD00AB83ACF0FDE58124FCF58190005E60
:0B04EB00EAF0A3EBF0A3ECF0A3EDF0AF
:0E04F60090005EE0FAA3E0FBA3E0FCA3E0FDB3
:0E050400E4C0E0E4C0E074B4C0E07443C0E0C2
:0E0512008A828B838CF0ED12159FAA82E58100
:0705200024FCF581EA701EC6
:08052700A2A1B3E433FA60164F
:0E052F00D2A1900064E0FAA3E0FB9000647497
:08053D00012AF0E43BA3F022C7
:0E05450090005EE0FAA3E0FBA3E0FCA3E0FD63
:0E055300E4C0E0E4C0E0E4C0E0E4C0E08A827E
:0E0561008B838CF0ED120F77AA82E58124FCCB
:05056F00F581EA7017A0
:0405740010A10122AF
:0E057800900064E0FAA3E0FB90006474012A96
:05058600F0E43BA3F0CE
:01058B00224D
:0D058C0043A0409000641206A953A0BF9048
:0E05990000641206A943A0409000641206A957
:0E05A70005807582001206EB058075828012B9
:0E05B50006EB058075824012072B05807582CB
:0E05C300141206EB05807582001206EB05800F
:0E05D10075824112072B05807582001206EB21
:0E05DF0005807582001206EB058075824212BF
:0E05ED00072B7582141206EB05807582001232
:0E05FB0006EB058075824312072B7582811274
:0C060900072B058075829812072B0580D6
:0106150022C2
:0E061600AA82AB83ACF0FD900004EAF0A3EBE7
:0E062400F0A3ECF0A3EDF0900004E0FAA3E0E8
:0E063200FBA3E0FCA3E0FD8A828B838CF01218
:0E0640000ED6AA82AB83ACF0FD7496C0E074B7
:0E064E0043C0E0740BC0E0743DC0E08A828BB4
:0E065C00838CF0ED120D92AA82AB83ACF0FD00
:0E066A00E58124FCF581E4C0E0E4C0E0E4C0DA
:0D067800E07440C0E08A828B838CF0ED12AC
:0E06850019A7AA82AB83ACF0FDE58124FCF539
:08069300818A828B838CF0ED5B
:01069B00223C
:0C069C00C2A0D2A09000011206A9C2A0CA
:0106A800222F
:0E06A900AA83E582900008F0A3EAF090000812
:0E06B700E0FAA3E0FB90003F741EF0E4A3F015
:0E06C5008A828B831215CFAA82AB837C007DC4
:0106D3000026
:0E06D400C3EC9AED64808BF063F08095F050DB
:0106E2000710
:0706E3000CBC00ED0D80EAE4
:0106EA0022ED
:0D06EB00E58290000AF043A00853A0CB90D8
:0E06F800000AE0F59043A01443A020900001FA
:030706000206A93F
:0907090012074CE582540360F76D
:0E07120043A00453A0C790000BE590F043A055
:0A0720001843A02090000BE0F582C2
:01072A0022AC
:0E072B00E58290000CF043A00843A02053A0EC
:0E073900EB90000CE0F59043A01453A0DF906D
:0507470000010206A9FB
:0D074C0043A00443A02053A0E79000021238
:0E07590006A990000DE590F043A01853A0DF14
:0607670090000DE0F58298
:01076D002269
:0E076E00E58290000EF090000EE0FAF5821287
:08077C0006EB7582C002072B99
:0E078400AA83E58290000FF0A3EAF090000F28
:0E079200E0FAA3E0FB8A047D008C82C002C066
:0E07A000031206EBD003D0028B027B008A828C
:0907AE001206EB75822402072BF0
:0D07B7007580019000001207847582B01259
:0607C400072B7A007B0AFE
:0E07CA00758200C002C0031206EBD003D002FD
:0507D8001ABAFF011B2D
:0407DD00EA4B70E98A
:0607E1007582B202072B35
:0E07E700AA82AB83ACF0FD900015EAF0A3EB04
:0E07F500F0A3ECF0A3EDF0900015E0FAA3E005
:0E080300FBA3E0FCA3E0FDE4C0E0E4C0E07471
:0E0811009EC0E07442C0E08A828B838CF0EDC2
:0E081F0012170BAA82AB83ACF0FDE58124FC1E
:0E082D00F5818A828B838CF0ED12190BAA8262
:0E083B00AB83C002C003900011E0C0E0A3E058
:0E084900C0E0A3E0C0E0A3E0C0E090000075B6
:0E085700F07C7442120D87AC82AD83AEF0FFD0
:0E086500E58124FCF581D003D0028C828D83C6
:0E0873008EF0EFC002C00312190BAC82AD83F1
:0E088100D003D00290004A7408F0E4A3F08A7D
:0E088F00828B83C002C003C004C00512176430
:0D089D00AE82AF83D005D004D003D002900E
:0E08AA00003F7414F0E4A3F08C828D83C00232
:0E08B800C003C006C0071215CFAC82AD83D0BE
:0E08C60007D006D003D002EC2EFEED3FFF8ED1
:0E08D400047D008C82C002C003C006C0071263
:0E08E20006EBD007D006D003D0028F067F00B1
:0E08F0008E82C002C0031206EBD003D0027548
:0E08FE008224C002C00312072BD003D0029048
:0D090C0000417408F0E4A3F08A828B83128E
:0E09190015EFAA82AB837407C39AFAE49BFB26
:0A0927008AF005F07A017B008006DB
:06093100EA2AFAEB33FB99
:0E093700D5F0F78A821206EB7582C002072BFC
:0E094500AA82AB83ACF0FD90001DEAF0A3EB9C
:0E095300F0A3ECF0A3EDF090001DE0FAA3E09D
:0E096100FBA3E0FCA3E0FD8A828B838CF012E6
:0E096F001933AA82AB83900019E0FCA3E0FDCF
:0E097D00A3E0FEA3E0FF8C828D838EF0C0020B
:0E098B00C003121933AC82AD83D003D00274C6
:0E099900502AFAE43BFB7440C39CFCE49DFD35
:0E09A700EBC423CAC423541F6ACA541FCA6A71
:0E09B500CAFB90003F7414F0E4A3F08C828D16
:0E09C30083C002C0031215CFAC82AD83D003F7
:0E09D100D002EC2AFAED3BFB8A047D008C82FA
:0E09DF00C002C0031206EBD003D002EBFA33C5
:0E09ED0095E0FB8A821206EB75822412072B1E
:0C09FB007582001206EB7582C002072B0B
:0E0A0700AA83E582900025F0A3EAF090002576
:0E0A1500E0FAA3E0FB90004A7408F0E4A3F0BE
:0E0A23008A828B83C002C003121764AC82ADBE
:0E0A310083D003D002900021E0FEA3E0FF90EE
:0E0A3F00003F7414F0E4A3F08E828F83C00297
:0E0A4D00C003C004C0051215CFAE82AF83D027
:0E0A5B0005D004D003D002EE2CFCEF3DFD8C44
:0E0A6900067F008E82C002C003C004C00512CA
:0E0A770006EBD005D004D003D002EDFC339581
:0E0A8500E0FD8C82C002C0031206EBD003D04D
:0E0A930002758224C002C00312072BD003D0CC
:0E0AA100029000417408F0E4A3F08A828B8377
:0E0AAF001215EFAA82AB837407C39AFCE49B76
:0B0ABD00FD8CF005F07C017D00800640
:060AC800EC2CFCED33FDF7
:0E0ACE00D5F0F7900027ECF0900023E0FDA398
:080ADC00E0FEBD011ABE001787
:060AE400BA000CBB000982
:090AEA00900027747F4CF080306D
:080AF30090002774FFF0802839
:060AFB00BD0225BE002231
:0E0B01007407C39AFAE49BFB8AF005F07A01B0
:040B0F007B008006E1
:060B1300EA2AFAEB33FBB5
:0A0B1900D5F0F790002774014AF0B0
:0E0B2300900027E0FAF5821206EB7582C00200
:020B3100072B90
:040B33007A007B00C9
:0B0B3700C3EA9480EB6480948050249B
:0E0B4200900021EAF0A3EBF0900023E4F0A372
:0E0B5000F090009FC002C003120A07D003D02D
:080B5E00020ABA00D40B80D199
:040B66007A007B0096
:0B0B6A00C3EA94A0EB64809480502844
:0E0B7500900021747FF0E4A3F090002374013F
:0D0B8300F0E4A3F08A828B83C002C003124D
:0D0B90000A07D003D0020ABA00D00B80CDB6
:0E0B9D009000217401F0E4A3F0900023740294
:0E0BAB00F0E4A3F090009E120A07900021745F
:0E0BB90002F0E4A3F09000237402F0E4A3F035
:0E0BC70090009D120A079000217403F0E4A331
:0E0BD500F09000237402F0E4A3F090009C1254
:0C0BE3000A079000217404F0E4A3F090D5
:0E0BEF0000237402F0E4A3F090009B120A07AA
:0E0BFD00900021747EF0E4A3F0900023E4F059
:0E0C0B00A3F0900001120A07900028747EF0FA
:0D0C1900E4A3F090002A7440F09000011256
:0C0C26000D06900028747DF0E4A3F0900F
:0C0C3200002A7420F0900001120D0690C2
:0E0C3E000028747CF0E4A3F090002A7410F0FB
:0E0C4C00900001120D06900021E4F0A3F0903C
:0E0C5A0000237401F0E4A3F0900000120A07DA
:0E0C68009000217401F0E4A3F0900023E4F06A
:0E0C7600A3F0900000120A079000217402F013
:0E0C8400E4A3F0900023E4F0A3F0900000122F
:0C0C92000A079000217403F0E4A3F09026
:0D0C9E000023E4F0A3F0900000120A07907C
:0E0CAB0000217404F0E4A3F09000237401F023
:0E0CB900E4A3F0900000120A079000217405D9
:0E0CC700F0E4A3F0900023E4F0A3F090000707
:0D0CD500120A079000217406F0E4A3F090CD
:0D0CE2000023E4F0A3F0900007120A079031
:0E0CEF0000217407F0E4A3F09000237401F0DC
:090CFD00E4A3F0900000020A07D4
:0E0D0600AA83E58290002BF0A3EAF090002B68
:0E0D1400E0FAA3E0FB90004A7408F0E4A3F0BC
:0E0D22008A828B83121764AA82AB839000280A
:0E0D3000E0FCA3E0FD90003F7414F0E4A3F09B
:0E0D3E008C828D83C002C0031215CFAC82AD33
:0E0D4C0083D003D002EC2AFAED3BFB8A047D33
:0E0D5A00008C82C002C0031206EBD003D00250
:0D0D68008B027B008A821206EB758224123A
:0A0D7500072B90002AE0FAF5821225
:080D7F0006EB7582C002072B90
:041B6A000000000077
:041B6E000000000073
:041B7200000000006F
:021B760000006D
:021B780000006B
:0B0D8700A8811818C6B2E7C602170BBF
:060D9200120E18BC000364
:030D980002195FDE
:080D9B00EF60FA30D502B2D17D
:0E0DA300E58225832482F582EA8DF0A4A8F073
:0E0DB100EA8EF0A428F8E435F0F9EB8DF0A4FA
:0E0DBF0028E935F0F9E433CA8FF0A429F9EAE7
:0E0DCD0035F0FAEBF88EF0A429F9EA35F0FAC9
:0E0DDB00E433FBEC8DF0A429F9EA35F0FAE4DC
:0E0DE9003BFBE88FF0A42AFAEB35F0FBE43375
:0E0DF700CCFD8EF0A42AFAEB35F0FBE43CFCB8
:0E0E0500ED8FF0A42BFBEC35F0FC20E7031280
:020E13000E4689
:030E150002193E81
:0D0E1800AA82AB83A2F73392D16002D2F719
:0E0E2500F582ACF0E58124F9F8E6FD08E6FE62
:0E0E33000886F008E6A2F73392D56002D2F7E7
:050E4100F583AFF02273
:061B3D00E478FFF6D8FD7C
:020E460078042E
:0E0E4800EC700DC9CACBFCE58224F8F582D807
:020E5600F12287
:020E5800782000
:0E0E5A0020E7111582C3E933F9EA33FAEB33CE
:060E6800FBEC33FCD8ECAA
:010E6E002261
:0C0E6F00C014858114AA82AB83ACF0FD96
:0E0E7B00C002C003C004C005E4C0E0E4C0E053
:0E0E8900E4C0E0E4C0E08A828B838CF0ED12BE
:0E0E97000F03AE82E58124FCF581D005D00466
:070EA500D003D002EE600A49
:0A0EAC0090000075F080743F801A7A
:0E0EB60090002D7401F0E4A3F08A828B838CEF
:0C0EC400F0ED120FA7AA82AB83ACF0FD8A
:060ED000851481D01422FC
:090ED600FCABF0AA83A982749E12
:0E0EDF00F582C2D1EC30E716D2D1E9F424013D
:0E0EED00F9EAF43400FAEBF43400FBECF434D0
:020EFB0000FCF9
:060EFD00120E4602193E30
:0E0F0300FFA88118181218D31218B5E964015E
:030F1100F5822244
:081B1B007910E94400601B7A17
:051B230001901B6A782F
:031B28005675A04F
:0C1B2B0000E493F2A308B8000205A0D962
:061B3700F4DAF275A0FFD4
:0C0F1400C014858114AA82AB83ACF0FDF0
:0E0F2000C002C003C004C005E4C0E0E4C0E0AD
:0E0F2E00E4C0E0E4C0E08A828B838CF0ED1218
:0E0F3C000F03AE82E58124FCF581D005D004C0
:070F4A00D003D002EE6008A5
:080F5100900000E4F5F08018A7
:0E0F590090002DE4F0A3F08A828B838CF0EDE3
:0A0F6700120FA7AA82AB83ACF0FDC5
:060F7100851481D014225A
:0E0F7700FFA88118181218D3D2D133E6400714
:070F850030E70B7582012229
:070F8C0020E7067582002238
:020F9300C2D1C9
:090F95001218B5E97003F582227F
:040F9E0030D101B39A
:050FA200E433F582229A
:0E0FA700AA82AB83ACF0FD90002FEAF0A3EB22
:0E0FB500F0A3ECF0A3EDF090002DE0FAA3E025
:040FC300FB4A60671E
:0E0FC70090002FE0FCA3E0FDA3E0FEA3E0FFFE
:0E0FD5008C828D838EF0C002C003121877ACA0
:0E0FE30082AD83AEF0FFD003D002C002C00387
:0E0FF10074DBC0E0740FC0E074C9C0E0743F50
:0E0FFF00C0E08C828D838EF0EF12170BAC8257
:0E100D00AD83AEF0FFE58124FCF581D003D069
:0E101B0002900033ECF0A3EDF0A3EEF0A3EF93
:05102900F0C200806B25
:0E102E0090002FE0FCA3E0FDA3E0FEA3E0FF96
:0E103C00C002C003C004C005C006C007E4C067
:0E104A00E0E4C0E0E4C0E0E4C0E08C828D830E
:0E1058008EF0EF12159FA882E58124FCF58131
:0E106600D007D006D005D004D003D002E86039
:011074001467
:0E107500900033ECF0A3EDF0A3EEF0EFB2E745
:06108300A3F0D200801072
:0E108900900033ECF0A3EDF0A3EEF0A3EFF037
:02109700C20095
:0E109900900033E0FCA3E0FDA3E0FEA3E0FF27
:0E10A700C002C003C004C005C006C007E4C0FC
:0E10B500E0740CC0E07449C0E07446C0E08CEA
:0E10C300828D838EF0EF120F77A882E58124D4
:0E10D100FCF581D007D006D005D004D003D0A6
:0410DF0002E86010B3
:0E10E3009000547422F0E4A3F0900000E4F5B5
:0210F100F022EB
:0E10F300C002C0037483C0E074F9C0E074A2B0
:0E110100C0E0743EC0E08C828D838EF0EF1251
:0E110F000D92AC82AD83AEF0FFE58124FCF5BD
:0E111D0081D003D002C002C003E4C0E0E4C0F1
:0E112B00E0E4C0E0743FC0E08C828D838EF063
:0E113900EF12170BAC82AD83AEF0FFE5812400
:0E114700FCF581D003D0028C828D838EF0EFF8
:0E115500C002C00312190BAC82AD83D003D0D0
:0511630002EC30E00287
:02116800B200D3
:0E116A008C828D83C002C0031218FEAC82ADD1
:0E11780083AEF0FFD003D00290003BECF0A35A
:0C118600EDF0A3EEF0A3EFF0EA4B6032B6
:0E119200E4C0E0E4C0E0E4C0E0743FC0E08CE4
:0E11A000828D838EF0EF120D87AA82AB83AC96
:0E11AE00F0FDE58124FCF58190003BEAF0A302
:0811BC00EBF0A3ECF0A3EDF051
:0E11C40090002FE0FAA3E0FBA3E0FCA3E0FD07
:0E11D2008A828B838CF0121877AA82AB83ACD2
:0E11E000F0FDC002C003C004C00512190BAE22
:0E11EE0082AF83D005D004D003D0028E828F52
:0E11FC0083C002C003C004C0051218FEAE82FC
:0E120A00AF83A8F0F9D005D004D003D002C005
:0E12180006C007C000C001C006C007C000C06D
:0D122600018A828B838CF0ED120D8785828A
:061233000C85830D85F01F
:0C1239000EF50FE58124FCF581D001D0FA
:0D12450000D007D00690003BE0F510A3E0BC
:09125200F511A3E0F512A3E0F58B
:0D125B0013C006C007C000C001E4C0E0E4FD
:0D126800C0E07449C0E07440C0E085108211
:071275008511838512F0E5ED
:0D127C0013120D92AA82AB83ACF0FDE58148
:0E12890024FCF581D001D000D007D006C002B1
:0E129700C003C004C0058E828F8388F0E91268
:0E12A5000D87AA82AB83ACF0FDE58124FCF539
:0612B30081C00CC00DC05B
:0B12B9000EC00F8A828B838CF0ED12B8
:0E12C400170BAA82AB83ACF0FDE58124FCF58C
:0E12D20081C002C003C004C0057422C0E074D5
:0D12E000AAC0E0747DC0E0743AC0E0851043
:0812ED00828511838512F0E5F2
:0D12F50013120D92AE82AF83A8F0F9E581CF
:0E13020024FCF581D005D004D003D002C00633
:0E131000C007C000C0018A828B838CF0ED12F2
:0E131E000D87AA82AB83ACF0FDE58124FCF5BF
:0E132C0081900037EAF0A3EBF0A3ECF0A3ED04
:0E133A00F0C002C003C004C005C002C003C062
:0E13480004C0058A828B838CF0ED120D928515
:07135600821085831185F070
:0C135D0012F513E58124FCF581D005D0C9
:0E13690004D003D002C002C003C004C005744B
:0E137700F3C0E074FFC0E0747FC0E07433C0C8
:08138500E085108285118385CB
:05138D0012F0E513124F
:0E1392000F77AE82E58124FCF581D005D004F2
:0A13A000D003D002EE7003021573B3
:0E13AA00C002C003C004C005745BC0E0749CA8
:0D13B800C0E0742EC0E07436C0E0851082E5
:0713C5008511838512F0E59C
:0D13CC0013120D92AE82AF83A8F0F9E581F7
:0E13D90024FCF581D005D004D003D002C00260
:0E13E700C003C004C0057422C0E074B2C0E0B0
:0E13F500744FC0E074B9C0E08E828F8388F020
:0E140300E912170BAE82AF83A8F0F9E5812441
:0E141100FCF581D005D004D003D002C002C08B
:0A141F0003C004C005C010C011C0D6
:0B14290012C0138E828F8388F0E9123E
:0E1434000D92AE82AF83A8F0F9E58124FCF59D
:0E14420081D005D004D003D002C002C003C088
:0E14500004C005743EC0E07487C0E07408C09C
:0D145E00E0743CC0E08E828F8388F0E912BC
:0E146B00170BAE82AF83A8F0F9E58124FCF5E3
:0E14790081D005D004D003D002C002C003C051
:0814870004C005C010C011C033
:0B148F0012C0138E828F8388F0E912D8
:0E149A000D92AE82AF83A8F0F9E58124FCF537
:0E14A80081D005D004D003D002C002C003C022
:0E14B60004C00574A4C0E074AAC0E0742AC08B
:0D14C400E074BEC0E08E828F8388F0E912D4
:0E14D100170BAE82AF83A8F0F9E58124FCF57D
:0E14DF0081D005D004D003D002C002C003C0EB
:0814ED0004C005C010C011C0CD
:0B14F50012C0138E828F8388F0E91272
:0E1500000D92AE82AF83A8F0F9E58124FCF5D0
:0E150E0081D005D004D003D002C002C003C0BB
:0E151C0004C005C006C007C000C0018A828B53
:0E152A00838CF0ED120D92AE82AF83A8F0F923
:0E153800E58124FCF581D005D004D003D0025B
:0E154600C006C007C000C0018A828B838CF0F3
:0E155400ED12170BAA82AB83ACF0FDE58124EB
:0E156200FCF581900037EAF0A3EBF0A3ECF06B
:03157000A3EDF0F8
:0315730030001332
:0E157600900037E0FAA3E0FBA3E0FCA3E0FD49
:05158400B2E7FD800E3E
:0E158900900037E0FAA3E0FBA3E0FCA3E0FD36
:071597008A828B838CF0EDCA
:01159E00222A
:0E159F00FFA88118181218D3D2D133E64007E6
:0715AD0030E70B75820022FC
:0715B40020E7067582012209
:0215BB00C2D19B
:0915BD001218B5E97003F5822251
:0415C60020D101B37C
:0515CA00E433F582226C
:0E15CF00AA83AB828BF090003FE0A4F8A9F055
:0E15DD008AF0E0A429F98BF0A3E0A429F5839D
:0315EB00888222D1
:0115EE0022DA
:0E15EF00AA83E582900043F0A3EAF090004347
:0815FD00E0FAA3E0FB30E7096E
:09160500C3E49AFCE49BFD80049F
:04160E008A048B05BA
:0E1612008C028D03900041E0FCA3E0FD30E768
:0116200009C0
:09162100C3E49CFEE49DFF80047B
:04162A008C068D0796
:0D162E00900045EEF0A3EFF08A828B83124E
:0E163B00165DAA82AB83900043E0FCA3E0FDA5
:0316490030E70C7B
:0C164C00C3E49AFCE49BFD8C828D832299
:041658008A828B8374
:01165C00226B
:0E165D00AA83E582900047F0A3EAF0900049CE
:0C166B00E4F0900047E0FAA3E0FB7C00F4
:0E167700900045E0FDA3E0FE235401FF703714
:0E168500EECD25E0CD33FE900045EDF0A3EE56
:0E169300F0900045E0FDA3E0FEC3EA9DEB9E53
:0216A1005011E6
:0E16A300EEC313CD13CDFE900045EDF0A3EE87
:0316B100F08008BE
:0816B4000C900049ECF080BB32
:0516BC00900049E0FA76
:0E16C100900047E0FBA3E0FC900045E0FDA395
:0916CF00E0FEC3EB9DEC9E400B14
:0B16D800900047EBC39DF0EC9EA3F0D8
:0E16E300900045E0FBA3E0FCC313CB13CBFC4F
:0E16F100900045EBF0A3ECF08A031AEB70C2F8
:0B16FF00900047E0FAA3E08A82F58328
:01170A0022BC
:081B43007800E84400600A7913
:031B4B000075A082
:061B4E0000E4F309D8FCDD
:081B54007856E84400600C79AA
:0B1B5C0001900000E4F0A3D8FCD9FACF
:03170B00120E18A3
:09170E007900E583B58202800D2B
:05171700500312198DC2
:08171C00E583C39582121A3F18
:08172400E5D0C465D020E117F7
:0E172C00EA2DFAEB3EFBEC3FFC500974011273
:06173A001A3FEC4480FCA4
:0317400002193E4D
:0E174300C3EA9DFAEB9EFBEC9FFC500FC3E443
:0D17510099F9E49AFAE49BFBE49CFCB2D108
:06175E00120E4602193EC6
:0E176400AA83E58290004CF0A3EAF090004CBE
:08177200E0FAA3E0FB30E709F7
:09177A00C3E49AFCE49BFD800429
:041783008A048B0544
:0E1787008C028D0390004AE0FCA3E0FD33E4E9
:0417950033FE6009B6
:09179900C3E49CFFE49DF8800408
:0417A2008C078D0023
:0E17A60090004EEFF0A3E8F08A828B83C0061D
:0E17B4001217DCAA82AB83D00690004CE0FC3A
:0917C200A3E0FD33E4336E600C7A
:0C17CB00C3E49AFCE49BFD8C828D832219
:0417D7008A828B83F4
:0117DB0022EB
:0E17DC00AA83E582900050F0A3EAF09000523C
:0E17EA00E4F0A3F090004EE0FAA3E0FB7C10C8
:0D17F800900050E0FDA3E0FE339201EECD25
:0E18050025E0CD33FE900050EDF0A3EEF09004
:0E1813000052E0FDA3E0FECD25E0CD33FE90B7
:0A1821000052EDF0A3EEF0300112CA
:0E182B00900052E0FDA3E0FE90005274014DCB
:04183900F0A3EEF03A
:0E183D00900052E0FDA3E0FEC3ED9AEE9B404A
:01184B001D7F
:0E184C00900052EDC39AF0EE9BA3F090005076
:0E185A00E0FDA3E0FE90005074014DF0A3EEFF
:01186800F08F
:02186900DC8D14
:0B186B00900050E0FAA3E08A82F583B1
:01187600224F
:0C187700C014858114AA82AB83ACF0FD84
:0D188300E5812404F581A81408A60208A63A
:0E1890000308A60408A60518181853057FA61D
:0E189E000208A60308A60408A6058A828B830A
:0318AC008CF0EDD0
:0618AF00851481D0142213
:0E18B5007901AA82E68F82B5821318E6B5F09B
:0E18C3000E18E6B5830918E68A82B58202790E
:0118D1000016
:0118D20022F3
:0E18D300B4800FE5F0700AE5837006E58270C0
:0318E100027F0083
:0118E400EF14
:0E18E500B6801518B6001018B6000B18B60025
:0718F3000608080876002238
:0118FA0008E5
:0118FB0008E4
:0118FC0008E3
:0118FD0022C8
:0D18FE00AC83AB827A007900748E020EDF9D
:06190B00121A8230D11215
:0E191100F4700BE5F0F47006E58330E7012278
:04191F009080002292
:0C192300700AE5F07006E58320E7012261
:04192F00907FFF2284
:0B1933007F8E121AE9F58385F08222F6
:06193E00B98003EA13B3B7
:0E1944004010EA2401FAE43BFBE43CFC5004B2
:041952007C8005820E
:09195600BC000EBB000BBA000836
:08195F00E4F5F0F583F58222A6
:0E196700A2D1E582138CF092F78B838A822244
:0D197500E4F583F58275F080F4A2D1132211
:0B198200E4F583F58275F0C0747F224D
:0E198D00E582C583F582A2D133A2D592D11393
:0C199B0092D5ECCFFCEBCEFBEACDFA229B
:0819A700120E1830D502B2D176
:0619AF00BF0003021975E0
:0619B500BC000302195FF3
:0E19BB00C3E5829583247FF582C3ED9AEE9BEF
:0E19C900EF9C40111582C3EA33F9EB33FAECC0
:0719D70033FBE433FC800543
:0519DE00E4CCCBCAF9C6
:0519E300C08275F0193F
:0E19E800C3E99DEA9EEB9FEC9400D5F00280CF
:0119F6002DC3
:0E19F700400EE99DF9EA9EFAEB9FFBEC94008E
:021A0500FCC320
:0E1A0700B3E833F8E58233F582E58333F583E7
:0E1A1500C3E933F9EA33FAEB33FBEC33FC8020
:011A2300C4FE
:0E1A2400B3E4F938FAE43582FBE43583FCD0F4
:071A320082500405827C8054
:061A3900120E46021956D0
:031B0E00758120BE
:0A1B1100121AD1E582600302000EF3
:091A3F006040F82582500274FF9A
:0E1A4800F582E824F8501ECCCBCAF9E4CC2479
:0E1A5600F85014CBCAF9E4CB24F8500BCAF9AF
:091A6400E4CA24F85003790022C1
:051A6D0024086010F8E0
:0E1A7200C3EC13FCEB13FBEA13FAE913F9D8EB
:011A8000F174
:011A81002242
:0A1A8200121AD5C3749E9582402D00
:081A8C007900121A3F30D11A53
:0E1A9400E9F42401F582EAF43400F583EBF462
:0C1AA2003400F5F0ECF4340030E70F22C3
:0B1AAE00EC20E71489828A838BF02271
:031AB90030D10A1F
:0A1ABC00E4F582F583F5F074802252
:0B1AC60074FFF582F583F5F0747F22B9
:031AD1007582001B
:011AD40022EF
:0D1AD500AA82AB83A2F73392D16002D2F750
:051AE200F582ACF022CA
:021AE7007F9EE0
:091AE900121AD530D10302195F75
:0E1AF200C3EF9582500974FFF5F0F583F5827D
:011B000022C2
:051B01007900121A3FFB
:081B060089828A838BF0EC2236
:00000001FF
