:1015F30044001400000000440010000000004400F8
:0F1603000200000000420000000042000600004C
:03000B00021632A8
:10163200C0E0C083C082900001E004F07006900018
:0D16420000E004F0C28DD082D083D0E032F1
:100D4A007F0A7E001215AD759850438920758DFA79
:100D5A00D28ED299438780D2A9D2AFE58954F04482
:100D6A0090F58943A07C1214AF12151C1210A8909A
:100D7A000029120CC4000000007F007E007D007C68
:100D8A0000121426C2A17FB87E0B1215ADC39000C3
:100D9A0007E09402900006E0648094804003020E0B
:100DAA00E1E4900000F0A3F0F58CF58AD28C7F0A7A
:100DBA00FE1215AD1216AF30B2FD20B2FDAF8CEFA8
:100DCA00FEAD8AEDFFE4FCFDC004C005C006C00705
:100DDA00900000E0FEA3E0FFE47810120C79D00343
:100DEA00D002D001D000EF4BFFEE4AFEED49FDECF8
:100DFA0048FC900014120CB8900014E0FCA3E0FD2B
:100E0A00A3E0FEA3E0FF121669900010120CB8903E
:100E1A000010E0FCA3E0FDA3E0FEA3E0FFE4FBFA80
:100E2A00F97840120A01900010120CB8900010E0F4
:100E3A00FCA3E0FDA3E0FEA3E0FFE4FBFA79C87897
:100E4A0042120A01900010120CB87FDB7E0F7D4916
:100E5A007C40900002E0F8A3E0F9A3E0FAA3E0FBEB
:100E6A001208F8E4FBFA79347843120A01120F687F
:100E7A00900010E0F8A3E0F9A3E0FAA3E0FB12085F
:100E8A00F8C004C005C006C0077FDB7E0F7D497C21
:100E9A0040900002E0F8A3E0F9A3E0FAA3E0FB1215
:100EAA0008F8E4FBFA79347843120A01120F7E90AB
:100EBA000010E0F8A3E0F9A3E0FAA3E0FB1208F8B7
:100ECA00900029120CB8D007D006D005D00412140D
:100EDA002612127E020D97E4F5807BC0FDFCFFFE10
:100EEA001215687D011215617B907D021215637BD4
:100EFA00887D031215637B887D041215637B907DC0
:100F0A00051215637D061215617BC07D07121563F4
:060F1A00A2B7928180FAEB
:10127E00C2A77F0A7E001215ADD2A71215A9C2A76A
:10128E00900002E0FCA3E0FDA3E0FEA3E0FF746685
:10129E00FBFAF9783F20A105120807800312080314
:1012AE00900002120CB8E4FFFE7DB47C4390000265
:1012BE00E0F8A3E0F9A3E0FAA3E0FB120A9E4014C3
:1012CE0020A111D2A1900007E004F0703490000626
:1012DE00E004F022E4FFFEFDFC900002E0F8A3E043
:1012EE00F9A3E0FAA3E0FB120A9E6002501330A1AC
:1012FE0010C2A1900007E004F07006900006E00412
:02130E00F022CB
:1014AF001215A653A0BF1215A91215A60580E4FFA9
:1014BF001215DB05807F801215DB05807F40121629
:1014CF001A05807F141215DB0580E4FF1215DB056A
:1014DF00807F4112161A0580E4FF1215DB0580E4A8
:1014EF00FF1215DB05807F4212161A7F141215DBCF
:1014FF000580E4FF1215DB05807F4312161A7F81EA
:0D150F0012161A05807F9812161A05802208
:10166900EC120B177B967A43790B783D1208F8E454
:09167900FBFAF97840120A012283
:0E16AF00C2A0D2A07F017E001215ADC2A02203
:0715A60043A0407F647E00BA
:0415AD00AB07AA06D8
:1015B1009000007C007D0AAF03AE02120C23C3E54C
:1015C100829FEE6480F8E5836480985003A380E3F2
:0115D10022F7
:0915D200EF2BFFEE3AF0A3EFF05D
:1015DB0043A00853A0DF53A0EB8F9043A01443A06C
:0815EB00207F017E000215AD16
:10164F00121682EF540360F843A00453A0DF53A097
:09165F00E7AF9043A01843A0205E
:01166800225F
:07161300E0FF1215DB7F244C
:10161A0043A00843A02053A0EB8F9043A01453A0EB
:08162A00DF7F017E000215AD17
:1016820043A00443A02053A0E77F027E001215ADC1
:08169200AF9043A01853A0DF44
:01169A00222D
:0816BD001215DB7FC002161AB2
:10169B00900027EE1215D7900027E0FF1215DB7F85
:0416AB002402161AE5
:10151C00900025E4F0A37420F0758001E4FFFE1226
:10152C00169B7FB012161AE4900025F0A3F0E4FF8E
:10153C001215DB900026E004F07006900025E00404
:10154C00F0C3900026E094FF900025E094FF40DE6D
:05155C007FB202161A27
:10142600E4900031F0120B5590002FEEF0A3EFF090
:10143600900029E0FCA3E0FDA3E0FEA3E0FF120B71
:1014460055900030E02450F090002FE03400F0C3B7
:1014560074409FFFE49EFE7C007D14120C23AC06B4
:10146600AD07E0FEA3E07803CEC313CE13D8F92D63
:10147600FFEC3E90002D1215D790002D12161390FA
:101486000031E0FF900030E05407FEC374079EFE73
:101496007401A806088002C333D8FC4FFF900031C0
:0914A600F01215DB7FC002161ADA
:10139C00E4900024F0120B55900022EEF0A3EFF035
:1013AC0090001CE0FCA3E0FDA3E0FEA3E0FF120B09
:1013BC0055900023E02450F0900022E03400F0C35C
:1013CC0074409FFFE49EFE7C007D14120C23AC063F
:1013DC00AD07E0FEA3E07803CEC313CE13D8F92DEE
:1013EC00FFEC3E9000201215D7900020121613909F
:1013FC000024E0FF900023E05407FEC374079EFE18
:10140C007401A806088002C333D8FCF45FFF900077
:0A141C0024F01215DB7FC002161A3F
:0811CE007B027A007C007E0028
:1011D600900027EEF0A3EFF0A3ECF0A3EDF0A3EA66
:0411E600F0A3EBF097
:1011EA00E490002FF0900027E0FEA3E0FF7C007D52
:1011FA0008120C35AA06AB07A3E0FEA3E0FF7C00A9
:10120A007D14120C2390002D1215D290002D121667
:10121A001390002FE0FB900027E0FEA3E0FF7C0084
:10122A007D08120C35C374079DFF7401A807088056
:10123A0002C333D8FCF94B90002FF090002BE0FA50
:10124A00A3E0FB64014A7012ED4C90002F7006E097
:10125A00447FF0801274FFF0800DEB64024A70073D
:10126A0090002F04F049F090002FE0FF1215DB7F69
:04127A00C002161A7E
:1010A800E4900025F0A3F0900025E0FCA3E0FDC348
:1010B8009480EC648094805019E4FBFA7F9FFE12C0
:1010C80011D6900026E004F070DD900025E004F0D1
:1010D80080D5E4900025F0A3F0900025E0FEA3E081
:1010E800FFC394A0EE64809480501B7B017A007D3E
:1010F8007F7C001211D6900026E004F070DB90008F
:1011080025E004F080D37D017F9E1211CE7D027F01
:101118009D1211CE7B027A007D037C007F9C7E00AD
:101128001211D67B027A007D047C007F9B7E001220
:1011380011D6E4FBFA7D7EFC7F01FE1211D67B40BE
:101148007D7E7C007F017E001215687B207D7D7C82
:10115800007F017E001215687B107D7C7C007F017A
:101168007E001215687B017A00E4FDFCFFFE121177
:10117800D6E4FBFA7D01FCFFFE1211D6E4FBFA7DF2
:1011880002FCFFFE1211D6E4FBFA7D03FCFFFE12FF
:1011980011D67B017A007D047C00E4FFFE1211D693
:1011A800E4FBFA7D05FC7F07FE1211D6E4FBFA7D0D
:1011B80006FC7F07FE1211D67B017A007D077C00B2
:0611C800E4FFFE0211D657
:071561007BA07C00E4FFFE0B
:0B156800900027ECF0A3EDF0A3EBF0E7
:101573007C007D08120C35AA06AB07900027E0FE1D
:10158300A3E0FF7C007D14120C2390002A1215D2D5
:1015930090002A121613900029E0FF1215DB7FC07A
:0315A30002161A13
:10080000020BC1E86480F8E933E83360110460F05A
:10081000ED33EC337009E8FCE9FDEAFEEBFF22045E
:1008200060DED3EB9FEA9EE99DE8C2E78CF0C2F759
:1008300095F0400CE8CCF8E9CDF9EACEFAEBCFFB25
:10084000120B8C85D0F05804700320D5B3E80470E7
:10085000075002B2D5020BCB92D5EC0460F7E4CC82
:10086000C0E0C398F8603B94186008400DD0E0FBEE
:10087000020BA3E4FBFAC9FC8028E830E406E4C9D3
:10088000FBE4CAFCE830E305E4C9CACBFCE8540742
:100890006010F8C3E913F9EA13FAEB13FBEC13FC4D
:1008A000D8F130F52FC3E49CFCEF9BFFEE9AFEEDF0
:1008B00099FDD0E0FBEF4E4D4C701222DB03020B92
:1008C000C8EC2CFCEF33FFEE33FEED33FDED30E7EB
:1008D000EB020BA3EF2BFFEE3AFEED39FDD0E0FB70
:1008E00050130BBB0003020BCBED13FDEE13FEEF19
:0808F00013FFEC13FC020BA343
:1008F800EC4D6011E8497017ED33EC3304600DE4FA
:10090800FCFFFEFD22E933E8330470F8020BC11244
:100918000B8C58046009E4CC248150062850090245
:100928000BCB284003020BC8C0E0EB4A7044B980E7
:1009380006D0E0FB020BB7EF4E701CBD8008EBFF42
:10094800EAFEE9FD80EBE98DF0A4FEE5F00209E19D
:10095800E9CDF9EAFEEBFFEF89F0A4FCE5F0CE89DA
:10096800F0A42EFFE435F0CD89F0A42DFEE435F097
:100978008067EF4E7005BD80D780C3EF8BF0A4ACC5
:10098800F0EE8BF0A42CFCE435F0F8EF8AF0A42C00
:10099800E5F038FCE433CB8DF0A42CFCE5F03BF813
:1009A800EE8AF0A42CFCE5F038F8E433CF89F0A403
:1009B8002CFCE5F038CF3400CE89F0A42FFFE5F009
:1009C8003EFEE433C98DF0A42EFEE5F039CD8AF061
:1009D800A42FFFE5F03EFEE43DFD33D0E0FB5007D9
:1009E8000BBB000F020BCBEC2CFCEF33FFEE33FEFE
:0609F800ED33FD020BA32C
:1009FE00020BCBEC5D046005E859047003020BC1D9
:100A0E00120B8C580460F6EC4860F2EC7004FDFE9C
:100A1E00FF22C860DB2481C85009C39860025006CB
:100A2E00020BC89850CAF582E9294B4A7005AB8271
:100A3E00020BB775F0007C1A7880C3EF9BEE9AED2F
:100A4E0099400DC3EF9BFFEE9AFEED99FDE842F043
:100A5E00DC23ACF0D0E0FFD0E0FED0E0FDAB822096
:100A6E00E7101BEB60BAEC2CFCEF33FFEE33FEED20
:100A7E0033FD020BA3E803F830E705C0F075F00074
:100A8E00EF2FFFEE33FEED33FD40B830E7C280AA04
:100A9E0074F8CC6480CCC86480C8F58204604FC3FF
:100AAE00EB9FF5F0EA9E42F0E99D42F0E89C45F09E
:100ABE00603C501DE5825FFFE582D313CB5BCBF428
:100ACE002B5582FB50280ABA002409B90020088051
:100ADE001DE5825BFBE582D313CF5FCFF4C3132FEB
:100AEE005582FF50090EBE00050DBD00010CC3EB73
:100AFE009FF5F0EA9E42F0E99D42F0E89C45F060D9
:090B0E0007CC4820E701B3EC22FA
:100B170075F020800E75F010800575F0087D007E59
:100B2700007F003392D530D503120C6BEC334010A5
:100B3700EF33FFEE33FEED33FDEC33FCD5F0ED2262
:0E0B4700E5F0247EA2D513CC92E7CDCEFF229E
:100B5500EDD2E7CD33EC3392D524814006E4FFFE98
:100B6500FDFC22FCE4CFCECDCC24E0501174FF80F7
:100B7500EDC3CC13CCCD13CDCE13CECF13CF047094
:070B8500F030D5DE020C6B1D
:100F20003A70FA83BCAAE9E43E81E0F8BF9DE9E6A5
:100F30003F80000039283C1ABB9969663DA335E320
:100F4000BF255DE73FC90FDB418DDBCCC44936EEE1
:100F500045C9913FC5B0F83D3F800000C317F53447
:100F6000452FFA73C60AFDDD12102904A2E1920092
:100F70001420E015900F207404120BD6803012104C
:100F80002930E102B20020E0EBA883A9829000257D
:100F9000120CB889828883900F347404120BD685A2
:100FA00082F0900025120C9C85F0821208F8ED4C1E
:100FB0006007300004EC6480FC22121029C0E0A815
:100FC00083A982900025120CB889828883900F58DB
:100FD0007403120BD68582F0900025120C9C85F0CC
:100FE000821208F8900025E0CCF0A3E0CDF0A3E059
:100FF000CEF0A3E0CFF0900F487403120BD6D0824E
:101000008582F0900025120C9C85F082E58230E00C
:1010100007120A01B2008096EFCBFFEECAFEEDC9BF
:10102000FDECC8FC120A018085ED33EC547FCC3313
:10103000920024605007D0E0D0E0020BC17B837A9D
:10104000F97922783E1208F8EDF933ECF83324816F
:101050005011EFFBEEFA120B55120B17ECB2E7FC36
:10106000120807ED33EC33602F2403F8C313FCEDB3
:1010700092E7FDE82481E4501FECF8EDF9EEFAEF79
:10108000FB120B55EF04C2E0FCF582120B21ECB20F
:10109000E7FC120807E58203FAED33EC336007142E
:0810A00013FCED92E7FDEA22CA
:100B8C00E9D2E7C933E833F892D5EDD2E7CD33ECAF
:070B9C0033FC5002B2D52228
:100BA300EC30E7100FBF000C0EBE00080DBD0004B3
:100BB3000BEB6014A2D5EB13FCED92E7FD2274FF5F
:100BC300FCFDFEFF22E480F8A2D574FF13FC7D80B8
:030BD300E480EFCC
:100BD600C0E0EFFBEEFAEDF9ECF81208F8D0E0F51C
:100BE600F0EFFBEEFAEDF9ECF8120C8CA3A3A3A33D
:100BF600E8C0E0E9C0E0EAC0E0EBC0E0C0F01208FF
:100C0600F8120CA8A3A3A3A3120807D0F0D0E0FB08
:0D0C1600D0E0FAD0E0F9D0E0F8D5F0D4221B
:03000000021310D8
:0C131000787FE4F6D8FD758120021357A9
:100C2300EF8DF0A4A8F0CF8CF0A428CE8DF0A42EE5
:020C3300FE229F
:100C3500C2D5EC30E709B2D5E4C39DFDE49CFCEEDA
:100C450030E715B2D5E4C39FFFE49EFE120CF5C351
:100C5500E49DFDE49CFC8003120CF530D507C3E44C
:060C65009FFFE49EFE2249
:0E0C6B00C3E49FFFE49EFEE49DFDE49CFC229A
:100C7900E8600FEFC333FFEE33FEED33FDEC33FCD9
:030C8900D8F1227D
:100C8C00E493FC740193FD740293FE740393FF22AE
:0C0C9C00E0F8A3E0F9A3E0FAA3E0FB22DB
:100CA800E493F8740193F9740293FA740393FB22A2
:0C0CB800ECF0A3EDF0A3EEF0A3EFF022AF
:100CC400A8828583F0D083D082120CDB120CDB1255
:100CD4000CDB120CDBE473E493A3C583C5F0C5837A
:100CE400C8C582C8F0A3C583C5F0C583C8C582C87A
:010CF40022DD
:10131C00020D4AE493A3F8E493A34003F68001F290
:10132C0008DFF48029E493A3F85407240CC8C333D2
:10133C00C4540F4420C8834004F456800146F6DFA1
:10134C00E4800B01020408102040809015F3E47E29
:10135C00019360BCA3FF543F30E509541FFEE49396
:10136C00A360010ECF54C025E060A840B8E493A35D
:10137C00FAE493A3F8E493A3C8C582C8CAC583CA88
:10138C00F0A3C8C582C8CAC583CADFE9DEE780BE40
:0116120000D7
:100CF500BC000BBE0029EF8DF084FFADF022E4CCE3
:100D0500F875F008EF2FFFEE33FEEC33FCEE9DECAB
:100D1500984005FCEE9DFE0FD5F0E9E4CEFD22EDF1
:100D2500F8F5F0EE8420D21CFEADF075F008EF2F3B
:100D3500FFED33FD4007985006D5F0F222C398FD2C
:050D45000FD5F0EA22C9
:00000001FF
