:100C910063200006000000000000000000000000CA
:100CA1000000000000000000000000000000000043
:100CB1000000000000000000000000000000000033
:100CC1000000000000000000000000000000000023
:100CD1000000000000000000000000000000000013
:100FB1000000000042032600004400000000000081
:070FC1004200040000C10022
:03000B0002126876
:10126800C0E0C0F0C083C082C0D075D000C000C04C
:1012780001C002C003C004C005C006C00720B2FDFB
:1012880030B20302131AAF8CEFFEAD8A7C00E42D56
:10129800FFEC3E4F607CAF8CEFFEAD8AE42DFFEC97
:1012A8003E900004F0A3EFF0858A80900004E0FEF1
:1012B800A3E0FF121584C004C005C006C007900350
:1012C80026E475F001120C35FEE5F07802C333CE42
:1012D80033CED8F92406F58274003EF583D007D0C2
:1012E80006D005D004120C85900000E0FCA3E0FDB8
:1012F800A3E0FEA3E0FF7B667A6679E6783F20A14B
:10130800051208078003120803900000120C8512CA
:10131800161CD007D006D005D004D003D002D001C7
:0D132800D000D0D0D082D083D0F0D0E03201
:10115100121531C2A1E4F5B0F5801216007FE87EC8
:10116100031215351215EB1215317F667E667DE689
:101171007CBF900000E0F8A3E0F9A3E0FAA3E0FB54
:10118100120807121011C004C005C006C007900361
:1011910026E0FEA3E07802C333CE33CED8F9240291
:1011A100F58274003EF583E0F8A3E0F9A3E0FAA329
:1011B100E0FBD007D006D005D0041208F8120B5579
:1011C100C0077F667E667DE67CBF900000E0F8A3E5
:1011D100E0F9A3E0FAA3E0FB120807121027C0040C
:1011E100C005C006C007900326E0FEA3E07802C355
:1011F10033CE33CED8F92402F58274003EF583E074
:10120100F8A3E0F9A3E0FAA3E0FBD007D006D005EC
:10121100D0041208F8120B55AD07D0077B01121349
:10122100C1E4FFFE7DB47C43900000E0F8A3E0F947
:10123100A3E0FAA3E0FB120A9E400720A104D2A179
:10124100801FE4FFFEFDFC900000E0F8A3E0F9A39D
:10125100E0FAA3E0FB120A9E6002500530A102C22F
:07126100A112160F02116536
:0D160F00C2A7121531D2A7121531C2A722B1
:10143A0012153112152E53A0BF12153112152E0591
:10144A00807FFF12150405807F7F12150405807FB7
:10145A004012155A05807F1A1215041215000580CC
:10146A007F4112155A12150012150005807F42128B
:10147A00155A7F1412150412150005807F431215A0
:10148A005A7F8112155A0580E4FFFE1215D37F9800
:06149A0012155A05802224
:10158400AD07AC06EC120B1C7B967A43790B783DC5
:0D1594001208F8E4FBFAF97840120A01226F
:1015EB00C2A07F017E00121535D2A07F0A7E0012A9
:0515FB001535C2A0221D
:07152E0043A0407F647E0032
:04153500AB07AA0650
:101539009000007C007D0AAF03AE02120C23C3E5C4
:10154900829FEE6480F8E5836480985003A380E36A
:01155900226F
:0F160000758909E4F58CF58A75881075A8822222
:08161C00E4F58CF58AC20022FE
:041500000580E4FF7F
:1015040090032CEFF01215BAEF540360F890032CFB
:10151400E0F59053A0DF53A0FB43A00853A0EF7F56
:0A152400017E0012153543A01022CD
:1015A10053A0DF43A00453A0F753A0EF7F017E00B7
:0815B100121535AF9043A010A4
:0115B900220F
:10155A0090032CEFF01215BAEF540360F890032CA5
:10156A00E0F59043A02053A0FB43A00853A0EF7FCF
:0A157A00017E0012153543A0102277
:1015BA0043A02053A0F743A00453A0EF7F017E006D
:0815CA00121535AF9043A0108B
:0115D20022F6
:1014A00053A0BF12153112152EE4FFFE1215D37F83
:1014B000401215047F011215047F4012155A058051
:1014C0007F14121504E4FF1215047F4212155A12FC
:1014D0001500E4FF1215047F4012155A05807F1491
:1014E000121504E4FF1215047F4112155A058005F8
:1014F000807F9C12155A05807F8012155A05802224
:0813C100900328EFF0A3EBF00C
:1013C900900328E0131313541F2440FBE43401FA5B
:1013D900ED75F014A42BFFE5F03AFE05801215D344
:1013E90005807FC512155A05801215A10580900345
:1013F90029E0601B900328E05407FEC374079EFE92
:101409007401A806088002C333D8FC4FFF801A90E4
:101419000328E05407FEC374079EFE7401A806085A
:101429008002C333D8FCF45FFF05801216240580BF
:011439002290
:081624001215047FC002155AE3
:1015D30090032AEEF0A3EFF012150490032AE0FF24
:0815E3001215047F2402155AC1
:10080000020BC1E86480F8E933E83360110460F05A
:10081000ED33EC337009E8FCE9FDEAFEEBFF22045E
:1008200060DED3EB9FEA9EE99DE8C2E78CF0C2F759
:1008300095F0400CE8CCF8E9CDF9EACEFAEBCFFB25
:10084000120B8C85D0F05804700320D5B3E80470E7
:10085000075002B2D5020BCB92D5EC0460F7E4CC82
:10086000C0E0C398F8603B94186008400DD0E0FBEE
:10087000020BA3E4FBFAC9FC8028E830E406E4C9D3
:10088000FBE4CAFCE830E305E4C9CACBFCE8540742
:100890006010F8C3E913F9EA13FAEB13FBEC13FC4D
:1008A000D8F130F52FC3E49CFCEF9BFFEE9AFEEDF0
:1008B00099FDD0E0FBEF4E4D4C701222DB03020B92
:1008C000C8EC2CFCEF33FFEE33FEED33FDED30E7EB
:1008D000EB020BA3EF2BFFEE3AFEED39FDD0E0FB70
:1008E00050130BBB0003020BCBED13FDEE13FEEF19
:0808F00013FFEC13FC020BA343
:1008F800EC4D6011E8497017ED33EC3304600DE4FA
:10090800FCFFFEFD22E933E8330470F8020BC11244
:100918000B8C58046009E4CC248150062850090245
:100928000BCB284003020BC8C0E0EB4A7044B980E7
:1009380006D0E0FB020BB7EF4E701CBD8008EBFF42
:10094800EAFEE9FD80EBE98DF0A4FEE5F00209E19D
:10095800E9CDF9EAFEEBFFEF89F0A4FCE5F0CE89DA
:10096800F0A42EFFE435F0CD89F0A42DFEE435F097
:100978008067EF4E7005BD80D780C3EF8BF0A4ACC5
:10098800F0EE8BF0A42CFCE435F0F8EF8AF0A42C00
:10099800E5F038FCE433CB8DF0A42CFCE5F03BF813
:1009A800EE8AF0A42CFCE5F038F8E433CF89F0A403
:1009B8002CFCE5F038CF3400CE89F0A42FFFE5F009
:1009C8003EFEE433C98DF0A42EFEE5F039CD8AF061
:1009D800A42FFFE5F03EFEE43DFD33D0E0FB5007D9
:1009E8000BBB000F020BCBEC2CFCEF33FFEE33FEFE
:0609F800ED33FD020BA32C
:1009FE00020BCBEC5D046005E859047003020BC1D9
:100A0E00120B8C580460F6EC4860F2EC7004FDFE9C
:100A1E00FF22C860DB2481C85009C39860025006CB
:100A2E00020BC89850CAF582E9294B4A7005AB8271
:100A3E00020BB775F0007C1A7880C3EF9BEE9AED2F
:100A4E0099400DC3EF9BFFEE9AFEED99FDE842F043
:100A5E00DC23ACF0D0E0FFD0E0FED0E0FDAB822096
:100A6E00E7101BEB60BAEC2CFCEF33FFEE33FEED20
:100A7E0033FD020BA3E803F830E705C0F075F00074
:100A8E00EF2FFFEE33FEED33FD40B830E7C280AA04
:100A9E0074F8CC6480CCC86480C8F58204604FC3FF
:100AAE00EB9FF5F0EA9E42F0E99D42F0E89C45F09E
:100ABE00603C501DE5825FFFE582D313CB5BCBF428
:100ACE002B5582FB50280ABA002409B90020088051
:100ADE001DE5825BFBE582D313CF5FCFF4C3132FEB
:100AEE005582FF50090EBE00050DBD00010CC3EB73
:100AFE009FF5F0EA9E42F0E99D42F0E89C45F060D9
:090B0E0007CC4820E701B3EC22FA
:100B170075F020800E75F010800575F0087D007E59
:100B2700007F003392D530D503120C4BEC334010C5
:100B3700EF33FFEE33FEED33FDEC33FCD5F0ED2262
:0E0B4700E5F0247EA2D513CC92E7CDCEFF229E
:100B5500EDD2E7CD33EC3392D524814006E4FFFE98
:100B6500FDFC22FCE4CFCECDCC24E0501174FF80F7
:100B7500EDC3CC13CCCD13CDCE13CECF13CF047094
:070B8500F030D5DE020C4B3D
:100FC9003A70FA83BCAAE9E43E81E0F8BF9DE9E6FC
:100FD9003F80000039283C1ABB9969663DA335E377
:100FE900BF255DE73FC90FDB418DDBCCC44936EE38
:100FF90045C9913FC5B0F83D3F800000C317F5349E
:10100900452FFA73C60AFDDD1210D204A2E192013E
:101019001420E015900FC97404120BD680301210F9
:10102900D230E102B20120E0EBA883A98290032823
:10103900120C8589828883900FDD7404120BD68582
:1010490082F0900328120C6985F0821208F8ED4CA1
:101059006007300104EC6480FC221210D2C0E0A8C1
:1010690083A982900328120C8589828883901001B4
:101079007403120BD68582F0900328120C6985F04F
:10108900821208F8900328E0CCF0A3E0CDF0A3E0A9
:10109900CEF0A3E0CFF0900FF17403120BD6D082FB
:1010A9008582F0900328120C6985F082E58230E090
:1010B90007120A01B2018096EFCBFFEECAFEEDC915
:1010C900FDECC8FC120A018085ED33EC547FCC336A
:1010D900920124605007D0E0D0E0020BC17B837AF3
:1010E900F97922783E1208F8EDF933ECF8332481C6
:1010F9005011EFFBEEFA120B55120B17ECB2E7FC8D
:10110900120807ED33EC33602F2403F8C313FCED09
:1011190092E7FDE82481E4501FECF8EDF9EEFAEFCF
:10112900FB120B55EF04C2E0FCF582120B21ECB265
:10113900E7FC120807E58203FAED33EC3360071484
:0811490013FCED92E7FDEA2220
:100B8C00E9D2E7C933E833F892D5EDD2E7CD33ECAF
:070B9C0033FC5002B2D52228
:100BA300EC30E7100FBF000C0EBE00080DBD0004B3
:100BB3000BEB6014A2D5EB13FCED92E7FD2274FF5F
:100BC300FCFDFEFF22E480F8A2D574FF13FC7D80B8
:030BD300E480EFCC
:100BD600C0E0EFFBEEFAEDF9ECF81208F8D0E0F51C
:100BE600F0EFFBEEFAEDF9ECF8120C59A3A3A3A370
:100BF600E8C0E0E9C0E0EAC0E0EBC0E0C0F01208FF
:100C0600F8120C75A3A3A3A3120807D0F0D0E0FB3B
:0D0C1600D0E0FAD0E0F9D0E0F8D5F0D4221B
:03000000021335B3
:0C133500787FE4F6D8FD75812002137C5F
:100C2300EF8DF0A4A8F0CF8CF0A428CE8DF0A42EE5
:020C3300FE229F
:100C3500A3F8E0C5F025F0F0E58215827002158372
:060C4500E0C838F0E822CF
:0E0C4B00C3E49FFFE49EFEE49DFDE49CFC22BA
:100C5900E493FC740193FD740293FE740393FF22E1
:0C0C6900E0F8A3E0F9A3E0FAA3E0FB220E
:100C7500E493F8740193F9740293FA740393FB22D5
:0C0C8500ECF0A3EDF0A3EEF0A3EFF022E2
:10134100021151E493A3F8E493A34003F68001F260
:1013510008DFF48029E493A3F85407240CC8C333AD
:10136100C4540F4420C8834004F456800146F6DF7C
:10137100E4800B0102040810204080900C91E47E6F
:10138100019360BCA3FF543F30E509541FFEE49371
:10139100A360010ECF54C025E060A840B8E493A338
:1013A100FAE493A3F8E493A3C8C582C8CAC583CA63
:1013B100F0A3C8C582C8CAC583CADFE9DEE780BE1B
:010FC8000028
:00000001FF
